{
  "_format": "hh-sol-artifact-1",
  "contractName": "CacheManagerAutomation",
  "sourceName": "src/contracts/CacheManagerAutomation.sol",
  "abi": [
    {
      "inputs": [],
      "name": "ContractNotFound",
      "type": "error"
    },
    {
      "inputs": [],
      "name": "ContractPaused",
      "type": "error"
    },
    {
      "inputs": [],
      "name": "InsufficientBalance",
      "type": "error"
    },
    {
      "inputs": [],
      "name": "InvalidAddress",
      "type": "error"
    },
    {
      "inputs": [],
      "name": "InvalidBid",
      "type": "error"
    },
    {
      "inputs": [],
      "name": "TooManyContracts",
      "type": "error"
    },
    {
      "anonymous": false,
      "inputs": [
        {
          "indexed": false,
          "internalType": "address",
          "name": "previousAdmin",
          "type": "address"
        },
        {
          "indexed": false,
          "internalType": "address",
          "name": "newAdmin",
          "type": "address"
        }
      ],
      "name": "AdminChanged",
      "type": "event"
    },
    {
      "anonymous": false,
      "inputs": [
        {
          "indexed": true,
          "internalType": "address",
          "name": "user",
          "type": "address"
        },
        {
          "indexed": false,
          "internalType": "uint256",
          "name": "newBalance",
          "type": "uint256"
        }
      ],
      "name": "BalanceUpdated",
      "type": "event"
    },
    {
      "anonymous": false,
      "inputs": [
        {
          "indexed": true,
          "internalType": "address",
          "name": "beacon",
          "type": "address"
        }
      ],
      "name": "BeaconUpgraded",
      "type": "event"
    },
    {
      "anonymous": false,
      "inputs": [
        {
          "indexed": true,
          "internalType": "address",
          "name": "user",
          "type": "address"
        },
        {
          "indexed": true,
          "internalType": "address",
          "name": "contractAddress",
          "type": "address"
        },
        {
          "indexed": false,
          "internalType": "uint256",
          "name": "bid",
          "type": "uint256"
        },
        {
          "indexed": false,
          "internalType": "bool",
          "name": "success",
          "type": "bool"
        }
      ],
      "name": "BidAttempted",
      "type": "event"
    },
    {
      "anonymous": false,
      "inputs": [
        {
          "indexed": true,
          "internalType": "address",
          "name": "user",
          "type": "address"
        },
        {
          "indexed": true,
          "internalType": "address",
          "name": "contractAddress",
          "type": "address"
        },
        {
          "indexed": false,
          "internalType": "uint256",
          "name": "bidAmount",
          "type": "uint256"
        },
        {
          "indexed": false,
          "internalType": "uint256",
          "name": "minBid",
          "type": "uint256"
        },
        {
          "indexed": false,
          "internalType": "uint256",
          "name": "maxBid",
          "type": "uint256"
        },
        {
          "indexed": false,
          "internalType": "uint256",
          "name": "userBalance",
          "type": "uint256"
        },
        {
          "indexed": false,
          "internalType": "bool",
          "name": "success",
          "type": "bool"
        }
      ],
      "name": "BidDetails",
      "type": "event"
    },
    {
      "anonymous": false,
      "inputs": [
        {
          "indexed": true,
          "internalType": "address",
          "name": "user",
          "type": "address"
        },
        {
          "indexed": true,
          "internalType": "address",
          "name": "contractAddress",
          "type": "address"
        },
        {
          "indexed": false,
          "internalType": "uint256",
          "name": "bid",
          "type": "uint256"
        },
        {
          "indexed": false,
          "internalType": "string",
          "name": "reason",
          "type": "string"
        }
      ],
      "name": "BidError",
      "type": "event"
    },
    {
      "anonymous": false,
      "inputs": [
        {
          "indexed": true,
          "internalType": "address",
          "name": "user",
          "type": "address"
        },
        {
          "indexed": true,
          "internalType": "address",
          "name": "contractAddress",
          "type": "address"
        },
        {
          "indexed": false,
          "internalType": "uint256",
          "name": "bidAmount",
          "type": "uint256"
        },
        {
          "indexed": false,
          "internalType": "uint256",
          "name": "minBid",
          "type": "uint256"
        },
        {
          "indexed": false,
          "internalType": "uint256",
          "name": "maxBid",
          "type": "uint256"
        },
        {
          "indexed": false,
          "internalType": "uint256",
          "name": "userBalance",
          "type": "uint256"
        }
      ],
      "name": "BidPlaced",
      "type": "event"
    },
    {
      "anonymous": false,
      "inputs": [
        {
          "indexed": true,
          "internalType": "address",
          "name": "user",
          "type": "address"
        },
        {
          "indexed": true,
          "internalType": "address",
          "name": "contractAddress",
          "type": "address"
        },
        {
          "indexed": false,
          "internalType": "uint256",
          "name": "maxBid",
          "type": "uint256"
        }
      ],
      "name": "ContractAdded",
      "type": "event"
    },
    {
      "anonymous": false,
      "inputs": [
        {
          "indexed": true,
          "internalType": "address",
          "name": "user",
          "type": "address"
        },
        {
          "indexed": true,
          "internalType": "address",
          "name": "contractAddress",
          "type": "address"
        },
        {
          "indexed": false,
          "internalType": "string",
          "name": "operation",
          "type": "string"
        },
        {
          "indexed": false,
          "internalType": "uint256",
          "name": "timestamp",
          "type": "uint256"
        }
      ],
      "name": "ContractOperationPerformed",
      "type": "event"
    },
    {
      "anonymous": false,
      "inputs": [
        {
          "indexed": true,
          "internalType": "address",
          "name": "user",
          "type": "address"
        },
        {
          "indexed": true,
          "internalType": "address",
          "name": "contractAddress",
          "type": "address"
        }
      ],
      "name": "ContractRemoved",
      "type": "event"
    },
    {
      "anonymous": false,
      "inputs": [
        {
          "indexed": true,
          "internalType": "address",
          "name": "user",
          "type": "address"
        },
        {
          "indexed": true,
          "internalType": "address",
          "name": "contractAddress",
          "type": "address"
        },
        {
          "indexed": false,
          "internalType": "uint256",
          "name": "maxBid",
          "type": "uint256"
        }
      ],
      "name": "ContractUpdated",
      "type": "event"
    },
    {
      "anonymous": false,
      "inputs": [
        {
          "indexed": false,
          "internalType": "uint8",
          "name": "version",
          "type": "uint8"
        }
      ],
      "name": "Initialized",
      "type": "event"
    },
    {
      "anonymous": false,
      "inputs": [
        {
          "indexed": true,
          "internalType": "address",
          "name": "contractAddress",
          "type": "address"
        },
        {
          "indexed": false,
          "internalType": "uint256",
          "name": "minBid",
          "type": "uint256"
        }
      ],
      "name": "MinBidCheck",
      "type": "event"
    },
    {
      "anonymous": false,
      "inputs": [
        {
          "indexed": true,
          "internalType": "address",
          "name": "previousOwner",
          "type": "address"
        },
        {
          "indexed": true,
          "internalType": "address",
          "name": "newOwner",
          "type": "address"
        }
      ],
      "name": "OwnershipTransferred",
      "type": "event"
    },
    {
      "anonymous": false,
      "inputs": [
        {
          "indexed": true,
          "internalType": "address",
          "name": "account",
          "type": "address"
        }
      ],
      "name": "Paused",
      "type": "event"
    },
    {
      "anonymous": false,
      "inputs": [
        {
          "indexed": true,
          "internalType": "address",
          "name": "account",
          "type": "address"
        }
      ],
      "name": "Unpaused",
      "type": "event"
    },
    {
      "anonymous": false,
      "inputs": [
        {
          "indexed": true,
          "internalType": "address",
          "name": "implementation",
          "type": "address"
        }
      ],
      "name": "Upgraded",
      "type": "event"
    },
    {
      "anonymous": false,
      "inputs": [
        {
          "indexed": false,
          "internalType": "uint256",
          "name": "totalContracts",
          "type": "uint256"
        },
        {
          "indexed": false,
          "internalType": "uint256",
          "name": "successfulBids",
          "type": "uint256"
        },
        {
          "indexed": false,
          "internalType": "uint256",
          "name": "failedBids",
          "type": "uint256"
        },
        {
          "indexed": false,
          "internalType": "uint256",
          "name": "timestamp",
          "type": "uint256"
        }
      ],
      "name": "UpkeepPerformed",
      "type": "event"
    },
    {
      "anonymous": false,
      "inputs": [
        {
          "indexed": true,
          "internalType": "address",
          "name": "user",
          "type": "address"
        },
        {
          "indexed": false,
          "internalType": "string",
          "name": "operation",
          "type": "string"
        },
        {
          "indexed": false,
          "internalType": "uint256",
          "name": "amount",
          "type": "uint256"
        },
        {
          "indexed": false,
          "internalType": "uint256",
          "name": "newBalance",
          "type": "uint256"
        },
        {
          "indexed": false,
          "internalType": "uint256",
          "name": "timestamp",
          "type": "uint256"
        }
      ],
      "name": "UserBalanceOperation",
      "type": "event"
    },
    {
      "inputs": [],
      "name": "arbWasmCache",
      "outputs": [
        {
          "internalType": "contract IArbWasmCache",
          "name": "",
          "type": "address"
        }
      ],
      "stateMutability": "view",
      "type": "function"
    },
    {
      "inputs": [],
      "name": "cacheManager",
      "outputs": [
        {
          "internalType": "contract ICacheManager",
          "name": "",
          "type": "address"
        }
      ],
      "stateMutability": "view",
      "type": "function"
    },
    {
      "inputs": [
        {
          "internalType": "bytes",
          "name": "",
          "type": "bytes"
        }
      ],
      "name": "checkUpkeep",
      "outputs": [
        {
          "internalType": "bool",
          "name": "upkeepNeeded",
          "type": "bool"
        },
        {
          "internalType": "bytes",
          "name": "performData",
          "type": "bytes"
        }
      ],
      "stateMutability": "view",
      "type": "function"
    },
    {
      "inputs": [],
      "name": "escrow",
      "outputs": [
        {
          "internalType": "contract BiddingEscrow",
          "name": "",
          "type": "address"
        }
      ],
      "stateMutability": "view",
      "type": "function"
    },
    {
      "inputs": [],
      "name": "fundBalance",
      "outputs": [],
      "stateMutability": "payable",
      "type": "function"
    },
    {
      "inputs": [],
      "name": "getUserAddresses",
      "outputs": [
        {
          "internalType": "address[]",
          "name": "",
          "type": "address[]"
        }
      ],
      "stateMutability": "view",
      "type": "function"
    },
    {
      "inputs": [],
      "name": "getUserBalance",
      "outputs": [
        {
          "internalType": "uint256",
          "name": "",
          "type": "uint256"
        }
      ],
      "stateMutability": "view",
      "type": "function"
    },
    {
      "inputs": [],
      "name": "getUserContracts",
      "outputs": [
        {
          "components": [
            {
              "internalType": "address",
              "name": "contractAddress",
              "type": "address"
            },
            {
              "internalType": "uint256",
              "name": "maxBid",
              "type": "uint256"
            },
            {
              "internalType": "uint256",
              "name": "lastBid",
              "type": "uint256"
            },
            {
              "internalType": "bool",
              "name": "enabled",
              "type": "bool"
            }
          ],
          "internalType": "struct ICacheManagerAutomation.ContractConfig[]",
          "name": "",
          "type": "tuple[]"
        }
      ],
      "stateMutability": "view",
      "type": "function"
    },
    {
      "inputs": [
        {
          "internalType": "address",
          "name": "_cacheManager",
          "type": "address"
        },
        {
          "internalType": "address",
          "name": "_arbWasmCache",
          "type": "address"
        }
      ],
      "name": "initialize",
      "outputs": [],
      "stateMutability": "nonpayable",
      "type": "function"
    },
    {
      "inputs": [
        {
          "internalType": "address",
          "name": "_contract",
          "type": "address"
        },
        {
          "internalType": "uint256",
          "name": "_maxBid",
          "type": "uint256"
        },
        {
          "internalType": "bool",
          "name": "_enabled",
          "type": "bool"
        }
      ],
      "name": "insertOrUpdateContract",
      "outputs": [],
      "stateMutability": "payable",
      "type": "function"
    },
    {
      "inputs": [],
      "name": "owner",
      "outputs": [
        {
          "internalType": "address",
          "name": "",
          "type": "address"
        }
      ],
      "stateMutability": "view",
      "type": "function"
    },
    {
      "inputs": [],
      "name": "pause",
      "outputs": [],
      "stateMutability": "nonpayable",
      "type": "function"
    },
    {
      "inputs": [],
      "name": "paused",
      "outputs": [
        {
          "internalType": "bool",
          "name": "",
          "type": "bool"
        }
      ],
      "stateMutability": "view",
      "type": "function"
    },
    {
      "inputs": [
        {
          "internalType": "bytes",
          "name": "performData",
          "type": "bytes"
        }
      ],
      "name": "performUpkeep",
      "outputs": [],
      "stateMutability": "nonpayable",
      "type": "function"
    },
    {
      "inputs": [],
      "name": "proxiableUUID",
      "outputs": [
        {
          "internalType": "bytes32",
          "name": "",
          "type": "bytes32"
        }
      ],
      "stateMutability": "view",
      "type": "function"
    },
    {
      "inputs": [],
      "name": "removeAllContracts",
      "outputs": [],
      "stateMutability": "nonpayable",
      "type": "function"
    },
    {
      "inputs": [
        {
          "internalType": "address",
          "name": "_contract",
          "type": "address"
        }
      ],
      "name": "removeContract",
      "outputs": [],
      "stateMutability": "nonpayable",
      "type": "function"
    },
    {
      "inputs": [],
      "name": "renounceOwnership",
      "outputs": [],
      "stateMutability": "nonpayable",
      "type": "function"
    },
    {
      "inputs": [
        {
          "internalType": "address",
          "name": "_contract",
          "type": "address"
        },
        {
          "internalType": "bool",
          "name": "_enabled",
          "type": "bool"
        }
      ],
      "name": "setContractEnabled",
      "outputs": [],
      "stateMutability": "nonpayable",
      "type": "function"
    },
    {
      "inputs": [
        {
          "internalType": "address",
          "name": "newOwner",
          "type": "address"
        }
      ],
      "name": "transferOwnership",
      "outputs": [],
      "stateMutability": "nonpayable",
      "type": "function"
    },
    {
      "inputs": [],
      "name": "unpause",
      "outputs": [],
      "stateMutability": "nonpayable",
      "type": "function"
    },
    {
      "inputs": [
        {
          "internalType": "address",
          "name": "newImplementation",
          "type": "address"
        }
      ],
      "name": "upgradeTo",
      "outputs": [],
      "stateMutability": "nonpayable",
      "type": "function"
    },
    {
      "inputs": [
        {
          "internalType": "address",
          "name": "newImplementation",
          "type": "address"
        },
        {
          "internalType": "bytes",
          "name": "data",
          "type": "bytes"
        }
      ],
      "name": "upgradeToAndCall",
      "outputs": [],
      "stateMutability": "payable",
      "type": "function"
    },
    {
      "inputs": [
        {
          "internalType": "address",
          "name": "",
          "type": "address"
        },
        {
          "internalType": "uint256",
          "name": "",
          "type": "uint256"
        }
      ],
      "name": "userContracts",
      "outputs": [
        {
          "internalType": "address",
          "name": "contractAddress",
          "type": "address"
        },
        {
          "internalType": "uint256",
          "name": "maxBid",
          "type": "uint256"
        },
        {
          "internalType": "uint256",
          "name": "lastBid",
          "type": "uint256"
        },
        {
          "internalType": "bool",
          "name": "enabled",
          "type": "bool"
        }
      ],
      "stateMutability": "view",
      "type": "function"
    },
    {
      "inputs": [],
      "name": "withdrawBalance",
      "outputs": [],
      "stateMutability": "nonpayable",
      "type": "function"
    },
    {
      "stateMutability": "payable",
      "type": "receive"
    }
  ],
  "bytecode": "0x60a06040523060805234801561001457600080fd5b5060805161352061004c600039600081816106200152818161066c015281816110e50152818161112801526111c401526135206000f3fe608060405260043610620001885760003560e01c8063715018a611620000e2578063b789003d1162000095578063dfc41f44116200006c578063dfc41f4414620004aa578063e2fdcc1714620004d1578063e8cc05d714620004f3578063f2fde38b146200051557600080fd5b8063b789003d146200041c578063c2f34469146200046e578063c375c2ef146200048557600080fd5b8063715018a614620003685780638456cb5914620003805780638da5cb5b14620003985780639ad02ca514620003b8578063a591efde14620003dd578063b7013dc1146200040457600080fd5b80634f1ef286116200013b5780634f1ef286146200026a57806352d1902d146200028157806359838a1514620002ac5780635c975abb14620002e75780635fd8c710146200031b5780636e04ff0d146200033357600080fd5b80633347f4c014620001c15780633659cfe614620001d95780633c06794514620001fe5780633f4ba83a14620002085780634585e33b1462000220578063485cc955146200024557600080fd5b36620001bc5760fb54600160a01b900460ff1615620001ba5760405163ab35696f60e01b815260040160405180910390fd5b005b600080fd5b348015620001ce57600080fd5b50620001ba6200053a565b348015620001e657600080fd5b50620001ba620001f8366004620027d0565b62000616565b620001ba6200070a565b3480156200021557600080fd5b50620001ba62000767565b3480156200022d57600080fd5b50620001ba6200023f366004620027ee565b620007ab565b3480156200025257600080fd5b50620001ba6200026436600462002865565b62000eea565b620001ba6200027b366004620028b3565b620010db565b3480156200028e57600080fd5b5062000299620011b7565b6040519081526020015b60405180910390f35b348015620002b957600080fd5b5060fc54620002ce906001600160a01b031681565b6040516001600160a01b039091168152602001620002a3565b348015620002f457600080fd5b5060fb546200030a90600160a01b900460ff1681565b6040519015158152602001620002a3565b3480156200032857600080fd5b50620001ba6200126d565b3480156200034057600080fd5b506200035862000352366004620027ee565b620013d8565b604051620002a3929190620029d5565b3480156200037557600080fd5b50620001ba620013f1565b3480156200038d57600080fd5b50620001ba62001407565b348015620003a557600080fd5b506097546001600160a01b0316620002ce565b348015620003c557600080fd5b50620001ba620003d736600462002a01565b62001451565b348015620003ea57600080fd5b50620003f562001504565b604051620002a3919062002a3d565b3480156200041157600080fd5b506200029962001521565b3480156200042957600080fd5b50620004416200043b36600462002a8c565b62001591565b604080516001600160a01b03909516855260208501939093529183015215156060820152608001620002a3565b620001ba6200047f36600462002ab9565b620015e5565b3480156200049257600080fd5b50620001ba620004a4366004620027d0565b6200188b565b348015620004b757600080fd5b50620004c262001a8a565b604051620002a3919062002afe565b348015620004de57600080fd5b5060fb54620002ce906001600160a01b031681565b3480156200050057600080fd5b5060fd54620002ce906001600160a01b031681565b3480156200052257600080fd5b50620001ba62000534366004620027d0565b62001b26565b33600090815260fe60205260408120805490918190036200056e57604051633b56498960e21b815260040160405180910390fd5b60005b81811015620005e9578281815481106200058f576200058f62002b6f565b600091825260208220600490910201546040516001600160a01b039091169133917f1de42a421eef953b12e8dffca9f7ba12e7962c982fc649e5e2c32ea0e7e3ca649190a380620005e08162002b9b565b91505062000571565b5033600090815260fe60205260408120620006049162002743565b6200061160ff3362001ba2565b505050565b6001600160a01b037f00000000000000000000000000000000000000000000000000000000000000001630036200066a5760405162461bcd60e51b8152600401620006619062002bb7565b60405180910390fd5b7f00000000000000000000000000000000000000000000000000000000000000006001600160a01b0316620006b5600080516020620034a4833981519152546001600160a01b031690565b6001600160a01b031614620006de5760405162461bcd60e51b8152600401620006619062002c03565b620006e98162001bc2565b60408051600080825260208201909252620007079183919062001bcc565b50565b60fb54600160a01b900460ff1615620007365760405163ab35696f60e01b815260040160405180910390fd5b6001341015620007595760405163c6388ef760e01b815260040160405180910390fd5b62000765333462001d44565b565b6200077162001e52565b60fb805460ff60a01b1916905560405133907f5db9ee0a495bf2e6ff9c91a7834c1ba4fdd244a5e8aa4e537bd38aeae4b073aa90600090a2565b6000620007bb8284018462002c4f565b9050600080600080620007cf60ff62001eae565b905060005b815181108015620007e457508583105b1562000e9957600082828151811062000801576200080162002b6f565b6020908102919091018101516001600160a01b03808216600081815260fe909452604080852060fb5491516371d4ed8d60e11b815260048101939093529395509293929091169063e3a9db1a90602401602060405180830381865afa1580156200086f573d6000803e3d6000fd5b505050506040513d601f19601f8201168201806040525081019062000895919062002c69565b905060005b825481108015620008aa57508987105b1562000e7f576200091e838281548110620008c957620008c962002b6f565b600091825260209182902060408051608081018252600490930290910180546001600160a01b0316835260018101549383019390935260028301549082015260039091015460ff161515606082015262001ec4565b1562000e6a5786620009308162002b9b565b97505060008382815481106200094a576200094a62002b6f565b6000918252602082206004918202015460fc546040516332052a9b60e01b81526001600160a01b0392831693810184905292945016906332052a9b90602401602060405180830381865afa158015620009a7573d6000803e3d6000fd5b505050506040513d601f19601f82011682018060405250810190620009cd919062002c83565b6040516001600160c01b03821681529091506001600160a01b038316907ffc4d978a018634589b4e918f343acda227a293b0d80a6c0e06735eb8a96817a99060200160405180910390a2600062000a2682600162002cae565b905085848154811062000a3d5762000a3d62002b6f565b906000526020600020906004020160010154816001600160c01b03161115801562000a715750806001600160c01b03168510155b1562000e565760fb5460405163f98b209360e01b81526001600160a01b0389811660048301526001600160c01b03841660248301529091169063f98b209390604401600060405180830381600087803b15801562000ace57600080fd5b505af192505050801562000ae0575060015b62000b8d57826001600160a01b0316876001600160a01b03167f1bea1426429dd9b3da9c9ea7ba8cba69ac192c6431969d36b16f67da9dd750228360405162000b6d91906001600160c01b039190911681526040602082018190526018908201527f457363726f77207769746864726177616c206661696c65640000000000000000606082015260800190565b60405180910390a38a62000b818162002b9b565b9b505050505062000e7f565b60fc5460405163e494015760e01b81526001600160a01b0385811660048301529091169063e4940157906001600160c01b038416906024016000604051808303818588803b15801562000bdf57600080fd5b505af19350505050801562000bf2575060015b62000cff5760fb5460405163f340fa0160e01b81526001600160a01b0389811660048301529091169063f340fa01906001600160c01b038416906024016000604051808303818588803b15801562000c4957600080fd5b505af115801562000c5e573d6000803e3d6000fd5b5050505050826001600160a01b0316876001600160a01b03167f1bea1426429dd9b3da9c9ea7ba8cba69ac192c6431969d36b16f67da9dd750228360405162000ce291906001600160c01b0391909116815260406020820181905260149082015273109a59081c1b1858d95b595b9d0819985a5b195960621b606082015260800190565b60405180910390a38a62000cf68162002b9b565b9b505062000e66565b806001600160c01b031686858154811062000d1e5762000d1e62002b6f565b60009182526020909120600260049092020101558b62000d3e8162002b9b565b9c5050826001600160a01b0316876001600160a01b03167f6229ae2434a7b897b76d5946d381d85108be07ea1a46cb4380fb23f7877301d183858a898154811062000d8d5762000d8d62002b6f565b9060005260206000209060040201600101548a60405162000dd594939291906001600160c01b0394851681529290931660208301526040820152606081019190915260800190565b60405180910390a360fc546040516332052a9b60e01b81526001600160a01b038581166004830152909116906332052a9b90602401602060405180830381865afa15801562000e28573d6000803e3d6000fd5b505050506040513d601f19601f8201168201806040525081019062000e4e919062002c83565b915062000e66565b8a62000e628162002b9b565b9b50505b5050505b8062000e768162002b9b565b9150506200089a565b50505050808062000e909062002b9b565b915050620007d4565b5060408051868152602081018690529081018490524260608201527fa280419cc0d3276d861f4d1b6207d488494ba2ff4dfab1107d04427704d57f249060800160405180910390a150505050505050565b600054610100900460ff161580801562000f0b5750600054600160ff909116105b8062000f275750303b15801562000f27575060005460ff166001145b62000f8c5760405162461bcd60e51b815260206004820152602e60248201527f496e697469616c697a61626c653a20636f6e747261637420697320616c72656160448201526d191e481a5b9a5d1a585b1a5e995960921b606482015260840162000661565b6000805460ff19166001179055801562000fb0576000805461ff0019166101001790555b6001600160a01b03831662000fd85760405163e6c4247b60e01b815260040160405180910390fd5b6001600160a01b038216620010005760405163e6c4247b60e01b815260040160405180910390fd5b6200100a62001ffd565b6200101462002031565b60fc80546001600160a01b038086166001600160a01b03199283161790925560fd805492851692909116919091179055604051620010529062002766565b604051809103906000f0801580156200106f573d6000803e3d6000fd5b5060fb80546001600160a01b0319166001600160a01b0392909216919091179055801562000611576000805461ff0019169055604051600181527f7f26b83ff96e1f2b6a682f133852f6798a09c465da95921460cefb38474024989060200160405180910390a1505050565b6001600160a01b037f0000000000000000000000000000000000000000000000000000000000000000163003620011265760405162461bcd60e51b8152600401620006619062002bb7565b7f00000000000000000000000000000000000000000000000000000000000000006001600160a01b031662001171600080516020620034a4833981519152546001600160a01b031690565b6001600160a01b0316146200119a5760405162461bcd60e51b8152600401620006619062002c03565b620011a58262001bc2565b620011b38282600162001bcc565b5050565b6000306001600160a01b037f00000000000000000000000000000000000000000000000000000000000000001614620012595760405162461bcd60e51b815260206004820152603860248201527f555550535570677261646561626c653a206d757374206e6f742062652063616c60448201527f6c6564207468726f7567682064656c656761746563616c6c0000000000000000606482015260840162000661565b50600080516020620034a483398151915290565b6200127762002065565b60fb54600160a01b900460ff1615620012a35760405163ab35696f60e01b815260040160405180910390fd5b60fb546040516371d4ed8d60e11b81523360048201526000916001600160a01b03169063e3a9db1a90602401602060405180830381865afa158015620012ed573d6000803e3d6000fd5b505050506040513d601f19601f8201168201806040525081019062001313919062002c69565b9050806000036200133757604051631e9acf1760e31b815260040160405180910390fd5b6040516000815233907f8ad64a0ac7700dd8425ab0499f107cb6e2cd1581d803c5b8c1c79dcb8190b1af9060200160405180910390a260fb546040516351cff8d960e01b81523360048201526001600160a01b03909116906351cff8d990602401600060405180830381600087803b158015620013b357600080fd5b505af1158015620013c8573d6000803e3d6000fd5b505050505062000765600160c955565b60006060620013e6620020c7565b909590945092505050565b620013fb62001e52565b6200076560006200225f565b6200141162001e52565b60fb805460ff60a01b1916600160a01b17905560405133907f62e78cea01bee320cd4e420270b5ea74000d11b0c9f74754ebdbfc544b05a25890600090a2565b33600090815260fe60205260408120905b8154811015620014fe57836001600160a01b03168282815481106200148b576200148b62002b6f565b60009182526020909120600490910201546001600160a01b031603620014e95782828281548110620014c157620014c162002b6f565b60009182526020909120600490910201600301805460ff191691151591909117905550505050565b80620014f58162002b9b565b91505062001462565b50505050565b60606200151062001e52565b6200151c60ff62001eae565b905090565b60fb546040516371d4ed8d60e11b81523360048201526000916001600160a01b03169063e3a9db1a90602401602060405180830381865afa1580156200156b573d6000803e3d6000fd5b505050506040513d601f19601f820116820180604052508101906200151c919062002c69565b60fe6020528160005260406000208181548110620015ae57600080fd5b600091825260209091206004909102018054600182015460028301546003909301546001600160a01b039092169450925060ff1684565b60fb54600160a01b900460ff1615620016115760405163ab35696f60e01b815260040160405180910390fd5b6001600160a01b038316620016395760405163e6c4247b60e01b815260040160405180910390fd5b60018210156200165c5760405163c6388ef760e01b815260040160405180910390fd5b33600090815260fe6020526040902080546032116200168e57604051632990b15f60e11b815260040160405180910390fd5b60005b8154811015620017a557846001600160a01b0316828281548110620016ba57620016ba62002b6f565b60009182526020909120600490910201546001600160a01b031603620017905783828281548110620016f057620016f062002b6f565b906000526020600020906004020160010181905550828282815481106200171b576200171b62002b6f565b60009182526020909120600490910201600301805460ff191691151591909117905562001749333462001d44565b6040518481526001600160a01b0386169033907f95b3377e475434fff4b527743f79205fc694d9d2f1383dc0945f103a74eabb459060200160405180910390a35050505050565b806200179c8162002b9b565b91505062001691565b50604080516080810182526001600160a01b0386811682526020808301878152600019948401948552861515606085019081528654600180820189556000898152949094209551600490910290950180546001600160a01b03191695909416949094178355519082015591516002830155516003909101805460ff191691151591909117905562001837333462001d44565b6200184460ff33620022b1565b506040518381526001600160a01b0385169033907f059d7576e9633bca7696f2c9a469531f9ac98e62b3160b7fffcd804d18a7fc609060200160405180910390a350505050565b33600090815260fe602052604081208054909103620018bd57604051633b56498960e21b815260040160405180910390fd5b6000805b825481101562001a7057836001600160a01b0316838281548110620018ea57620018ea62002b6f565b60009182526020909120600490910201546001600160a01b03160362001a5b5782546001925083906200191f90849062002cd1565b8154811062001932576200193262002b6f565b906000526020600020906004020183828154811062001955576200195562002b6f565b60009182526020909120825460049092020180546001600160a01b0319166001600160a01b0390921691909117815560018083015490820155600280830154908201556003918201549101805460ff909216151560ff199092169190911790558254839080620019c957620019c962002ce7565b60008281526020812060046000199093019283020180546001600160a01b03191681556001810182905560028101829055600301805460ff1916905591558354900362001a1f5762001a1d60ff3362001ba2565b505b6040516001600160a01b0385169033907f1de42a421eef953b12e8dffca9f7ba12e7962c982fc649e5e2c32ea0e7e3ca6490600090a350505050565b8062001a678162002b9b565b915050620018c1565b50604051633b56498960e21b815260040160405180910390fd5b33600090815260fe60209081526040808320805482518185028101850190935280835260609492939192909184015b8282101562001b1d576000848152602090819020604080516080810182526004860290920180546001600160a01b03168352600180820154848601526002820154928401929092526003015460ff1615156060830152908352909201910162001ab9565b50505050905090565b62001b3062001e52565b6001600160a01b03811662001b975760405162461bcd60e51b815260206004820152602660248201527f4f776e61626c653a206e6577206f776e657220697320746865207a65726f206160448201526564647265737360d01b606482015260840162000661565b62000707816200225f565b600062001bb9836001600160a01b038416620022c8565b90505b92915050565b6200070762001e52565b7f4910fdfa16fed3260ed0e7147f7cc6da11a60208b5b9406d12a635614ffd91435460ff161562001c02576200061183620023d3565b826001600160a01b03166352d1902d6040518163ffffffff1660e01b8152600401602060405180830381865afa92505050801562001c5f575060408051601f3d908101601f1916820190925262001c5c9181019062002c69565b60015b62001cc45760405162461bcd60e51b815260206004820152602e60248201527f45524331393637557067726164653a206e657720696d706c656d656e7461746960448201526d6f6e206973206e6f74205555505360901b606482015260840162000661565b600080516020620034a4833981519152811462001d365760405162461bcd60e51b815260206004820152602960248201527f45524331393637557067726164653a20756e737570706f727465642070726f786044820152681a58589b195555525160ba1b606482015260840162000661565b506200061183838362002472565b60fb5460405163f340fa0160e01b81526001600160a01b0384811660048301529091169063f340fa019083906024016000604051808303818588803b15801562001d8d57600080fd5b505af115801562001da2573d6000803e3d6000fd5b505060fb546040516371d4ed8d60e11b81526001600160a01b038781166004830181905295507f8ad64a0ac7700dd8425ab0499f107cb6e2cd1581d803c5b8c1c79dcb8190b1af9450909116915063e3a9db1a90602401602060405180830381865afa15801562001e17573d6000803e3d6000fd5b505050506040513d601f19601f8201168201806040525081019062001e3d919062002c69565b60405190815260200160405180910390a25050565b6097546001600160a01b03163314620007655760405162461bcd60e51b815260206004820181905260248201527f4f776e61626c653a2063616c6c6572206973206e6f7420746865206f776e6572604482015260640162000661565b6060600062001ebd836200249d565b9392505050565b6000816060015162001ed857506000919050565b60fc5482516040516332052a9b60e01b81526001600160a01b03918216600482015260009291909116906332052a9b90602401602060405180830381865afa15801562001f29573d6000803e3d6000fd5b505050506040513d601f19601f8201168201806040525081019062001f4f919062002c83565b90508260200151816001600160c01b031610801562001fde575060fd54835160405163a72f179b60e01b81526001600160a01b039182163f600482015291169063a72f179b90602401602060405180830381865afa15801562001fb6573d6000803e3d6000fd5b505050506040513d601f19601f8201168201806040525081019062001fdc919062002cfd565b155b801562001ebd57508260400151816001600160c01b0316109392505050565b600054610100900460ff16620020275760405162461bcd60e51b8152600401620006619062002d1d565b62000765620024fb565b600054610100900460ff166200205b5760405162461bcd60e51b8152600401620006619062002d1d565b6200076562002530565b600260c95403620020b95760405162461bcd60e51b815260206004820152601f60248201527f5265656e7472616e637947756172643a207265656e7472616e742063616c6c00604482015260640162000661565b600260c955565b600160c955565b60006060600080620020da60ff62001eae565b905060005b81518110156200222d57600060fe600084848151811062002104576200210462002b6f565b60200260200101516001600160a01b03166001600160a01b03168152602001908152602001600020805480602002602001604051908101604052809291908181526020016000905b82821015620021b0576000848152602090819020604080516080810182526004860290920180546001600160a01b03168352600180820154848601526002820154928401929092526003015460ff161515606083015290835290920191016200214c565b50505050905060005b81518110156200221557620021ea828281518110620021dc57620021dc62002b6f565b602002602001015162001ec4565b15620022005784620021fc8162002b9b565b9550505b806200220c8162002b9b565b915050620021b9565b50508080620022249062002b9b565b915050620020df565b5060008211826040516020016200224691815260200190565b6040516020818303038152906040529350935050509091565b609780546001600160a01b038381166001600160a01b0319831681179093556040519116919082907f8be0079c531659141344cd1fd0a4f28419497f9722a3daafe3b4186f6b6457e090600090a35050565b600062001bb9836001600160a01b0384166200255a565b60008181526001830160205260408120548015620023c1576000620022ef60018362002cd1565b8554909150600090620023059060019062002cd1565b90508181146200237157600086600001828154811062002329576200232962002b6f565b90600052602060002001549050808760000184815481106200234f576200234f62002b6f565b6000918252602080832090910192909255918252600188019052604090208390555b855486908062002385576200238562002ce7565b60019003818190600052602060002001600090559055856001016000868152602001908152602001600020600090556001935050505062001bbc565b600091505062001bbc565b5092915050565b6001600160a01b0381163b620024425760405162461bcd60e51b815260206004820152602d60248201527f455243313936373a206e657720696d706c656d656e746174696f6e206973206e60448201526c1bdd08184818dbdb9d1c9858dd609a1b606482015260840162000661565b600080516020620034a483398151915280546001600160a01b0319166001600160a01b0392909216919091179055565b6200247d83620025ac565b6000825111806200248b5750805b156200061157620014fe8383620025ee565b606081600001805480602002602001604051908101604052809291908181526020018280548015620024ef57602002820191906000526020600020905b815481526020019060010190808311620024da575b50505050509050919050565b600054610100900460ff16620025255760405162461bcd60e51b8152600401620006619062002d1d565b62000765336200225f565b600054610100900460ff16620020c05760405162461bcd60e51b8152600401620006619062002d1d565b6000818152600183016020526040812054620025a35750815460018181018455600084815260208082209093018490558454848252828601909352604090209190915562001bbc565b50600062001bbc565b620025b781620023d3565b6040516001600160a01b038216907fbc7cd75a20ee27fd9adebab32041f755214dbc6bffa90cc0225b39da2e5c2d3b90600090a250565b606062001bb98383604051806060016040528060278152602001620034c4602791396060600080856001600160a01b0316856040516200262f919062002d68565b600060405180830381855af49150503d80600081146200266c576040519150601f19603f3d011682016040523d82523d6000602084013e62002671565b606091505b509150915062002684868383876200268e565b9695505050505050565b6060831562002702578251600003620026fa576001600160a01b0385163b620026fa5760405162461bcd60e51b815260206004820152601d60248201527f416464726573733a2063616c6c20746f206e6f6e2d636f6e7472616374000000604482015260640162000661565b50816200270e565b6200270e838362002716565b949350505050565b815115620027275781518083602001fd5b8060405162461bcd60e51b815260040162000661919062002d86565b508054600082556004029060005260206000209081019062000707919062002774565b6107088062002d9c83390190565b5b80821115620027af5780546001600160a01b0319168155600060018201819055600282015560038101805460ff1916905560040162002775565b5090565b80356001600160a01b0381168114620027cb57600080fd5b919050565b600060208284031215620027e357600080fd5b62001bb982620027b3565b600080602083850312156200280257600080fd5b823567ffffffffffffffff808211156200281b57600080fd5b818501915085601f8301126200283057600080fd5b8135818111156200284057600080fd5b8660208285010111156200285357600080fd5b60209290920196919550909350505050565b600080604083850312156200287957600080fd5b6200288483620027b3565b91506200289460208401620027b3565b90509250929050565b634e487b7160e01b600052604160045260246000fd5b60008060408385031215620028c757600080fd5b620028d283620027b3565b9150602083013567ffffffffffffffff80821115620028f057600080fd5b818501915085601f8301126200290557600080fd5b8135818111156200291a576200291a6200289d565b604051601f8201601f19908116603f011681019083821181831017156200294557620029456200289d565b816040528281528860208487010111156200295f57600080fd5b8260208601602083013760006020848301015280955050505050509250929050565b60005b838110156200299e57818101518382015260200162002984565b50506000910152565b60008151808452620029c181602086016020860162002981565b601f01601f19169290920160200192915050565b82151581526040602082015260006200270e6040830184620029a7565b80151581146200070757600080fd5b6000806040838503121562002a1557600080fd5b62002a2083620027b3565b9150602083013562002a3281620029f2565b809150509250929050565b6020808252825182820181905260009190848201906040850190845b8181101562002a805783516001600160a01b03168352928401929184019160010162002a59565b50909695505050505050565b6000806040838503121562002aa057600080fd5b62002aab83620027b3565b946020939093013593505050565b60008060006060848603121562002acf57600080fd5b62002ada84620027b3565b925060208401359150604084013562002af381620029f2565b809150509250925092565b602080825282518282018190526000919060409081850190868401855b8281101562002b6257815180516001600160a01b03168552868101518786015285810151868601526060908101511515908501526080909301929085019060010162002b1b565b5091979650505050505050565b634e487b7160e01b600052603260045260246000fd5b634e487b7160e01b600052601160045260246000fd5b60006001820162002bb05762002bb062002b85565b5060010190565b6020808252602c908201527f46756e6374696f6e206d7573742062652063616c6c6564207468726f7567682060408201526b19195b1959d85d1958d85b1b60a21b606082015260800190565b6020808252602c908201527f46756e6374696f6e206d7573742062652063616c6c6564207468726f7567682060408201526b6163746976652070726f787960a01b606082015260800190565b60006020828403121562002c6257600080fd5b5035919050565b60006020828403121562002c7c57600080fd5b5051919050565b60006020828403121562002c9657600080fd5b81516001600160c01b038116811462001ebd57600080fd5b6001600160c01b03818116838216019080821115620023cc57620023cc62002b85565b8181038181111562001bbc5762001bbc62002b85565b634e487b7160e01b600052603160045260246000fd5b60006020828403121562002d1057600080fd5b815162001ebd81620029f2565b6020808252602b908201527f496e697469616c697a61626c653a20636f6e7472616374206973206e6f74206960408201526a6e697469616c697a696e6760a81b606082015260800190565b6000825162002d7c81846020870162002981565b9190910192915050565b60208152600062001bb96020830184620029a756fe608060405234801561001057600080fd5b5061001a3361001f565b61006f565b600080546001600160a01b038381166001600160a01b0319831681178455604051919092169283917f8be0079c531659141344cd1fd0a4f28419497f9722a3daafe3b4186f6b6457e09190a35050565b61068a8061007e6000396000f3fe6080604052600436106100705760003560e01c8063e3a9db1a1161004e578063e3a9db1a146100d9578063f2fde38b1461011d578063f340fa011461013d578063f98b20931461015057600080fd5b806351cff8d914610075578063715018a6146100975780638da5cb5b146100ac575b600080fd5b34801561008157600080fd5b506100956100903660046105c2565b610170565b005b3480156100a357600080fd5b506100956101e7565b3480156100b857600080fd5b506000546040516001600160a01b0390911681526020015b60405180910390f35b3480156100e557600080fd5b5061010f6100f43660046105c2565b6001600160a01b031660009081526001602052604090205490565b6040519081526020016100d0565b34801561012957600080fd5b506100956101383660046105c2565b6101fb565b61009561014b3660046105c2565b610279565b34801561015c57600080fd5b5061009561016b3660046105e6565b6102eb565b6101786103e5565b6001600160a01b03811660008181526001602052604081208054919055906101a0908261043f565b816001600160a01b03167f7084f5476618d8e60b11ef0d7d3f06914655adb8793e28ff7f018d4c76d505d5826040516101db91815260200190565b60405180910390a25050565b6101ef6103e5565b6101f9600061055d565b565b6102036103e5565b6001600160a01b03811661026d5760405162461bcd60e51b815260206004820152602660248201527f4f776e61626c653a206e6577206f776e657220697320746865207a65726f206160448201526564647265737360d01b60648201526084015b60405180910390fd5b6102768161055d565b50565b6102816103e5565b6001600160a01b0381166000908152600160205260408120805434928392916102ab908490610628565b90915550506040518181526001600160a01b038316907f2da466a7b24304f47e87fa2e1e5a81b9831ce54fec19055ce277ca2f39ba42c4906020016101db565b6102f36103e5565b6001600160a01b038216600090815260016020526040902054808211156103555760405162461bcd60e51b8152602060048201526016602482015275416d6f756e7420657863656564732062616c616e636560501b6044820152606401610264565b61035f8282610641565b6001600160a01b03841660009081526001602052604090205561039d8261038e6000546001600160a01b031690565b6001600160a01b03169061043f565b826001600160a01b03167f7084f5476618d8e60b11ef0d7d3f06914655adb8793e28ff7f018d4c76d505d5836040516103d891815260200190565b60405180910390a2505050565b6000546001600160a01b031633146101f95760405162461bcd60e51b815260206004820181905260248201527f4f776e61626c653a2063616c6c6572206973206e6f7420746865206f776e65726044820152606401610264565b8047101561048f5760405162461bcd60e51b815260206004820152601d60248201527f416464726573733a20696e73756666696369656e742062616c616e63650000006044820152606401610264565b6000826001600160a01b03168260405160006040518083038185875af1925050503d80600081146104dc576040519150601f19603f3d011682016040523d82523d6000602084013e6104e1565b606091505b50509050806105585760405162461bcd60e51b815260206004820152603a60248201527f416464726573733a20756e61626c6520746f2073656e642076616c75652c207260448201527f6563697069656e74206d617920686176652072657665727465640000000000006064820152608401610264565b505050565b600080546001600160a01b038381166001600160a01b0319831681178455604051919092169283917f8be0079c531659141344cd1fd0a4f28419497f9722a3daafe3b4186f6b6457e09190a35050565b6001600160a01b038116811461027657600080fd5b6000602082840312156105d457600080fd5b81356105df816105ad565b9392505050565b600080604083850312156105f957600080fd5b8235610604816105ad565b946020939093013593505050565b634e487b7160e01b600052601160045260246000fd5b8082018082111561063b5761063b610612565b92915050565b8181038181111561063b5761063b61061256fea26469706673582212207fb0e4e68eae764228722d0f39db3e1d71ddbd6063508fcabb0af94378ad082f64736f6c63430008140033360894a13ba1a3210667c828492db98dca3e2076cc3735a920a3ca505d382bbc416464726573733a206c6f772d6c6576656c2064656c65676174652063616c6c206661696c6564a26469706673582212209ee52792308657fbc90d2370d7aa04fc4762498b21c400c433c230022d581a6764736f6c63430008140033",
  "linkReferences": {},
  "deployedLinkReferences": {}
}