{
  "_format": "hh-sol-artifact-1",
  "contractName": "CacheManagerAutomation",
  "sourceName": "src/contracts/CacheManagerAutomation.sol",
  "abi": [
    {
      "inputs": [],
      "name": "ContractNotFound",
      "type": "error"
    },
    {
      "inputs": [],
      "name": "ContractPaused",
      "type": "error"
    },
    {
      "inputs": [],
      "name": "InsufficientBalance",
      "type": "error"
    },
    {
      "inputs": [],
      "name": "InvalidAddress",
      "type": "error"
    },
    {
      "inputs": [],
      "name": "InvalidBid",
      "type": "error"
    },
    {
      "inputs": [],
      "name": "TooManyContracts",
      "type": "error"
    },
    {
      "anonymous": false,
      "inputs": [
        {
          "indexed": false,
          "internalType": "address",
          "name": "previousAdmin",
          "type": "address"
        },
        {
          "indexed": false,
          "internalType": "address",
          "name": "newAdmin",
          "type": "address"
        }
      ],
      "name": "AdminChanged",
      "type": "event"
    },
    {
      "anonymous": false,
      "inputs": [
        {
          "indexed": true,
          "internalType": "address",
          "name": "user",
          "type": "address"
        },
        {
          "indexed": false,
          "internalType": "uint256",
          "name": "newBalance",
          "type": "uint256"
        }
      ],
      "name": "BalanceUpdated",
      "type": "event"
    },
    {
      "anonymous": false,
      "inputs": [
        {
          "indexed": true,
          "internalType": "address",
          "name": "beacon",
          "type": "address"
        }
      ],
      "name": "BeaconUpgraded",
      "type": "event"
    },
    {
      "anonymous": false,
      "inputs": [
        {
          "indexed": true,
          "internalType": "address",
          "name": "user",
          "type": "address"
        },
        {
          "indexed": true,
          "internalType": "address",
          "name": "contractAddress",
          "type": "address"
        },
        {
          "indexed": false,
          "internalType": "uint256",
          "name": "bid",
          "type": "uint256"
        },
        {
          "indexed": false,
          "internalType": "bool",
          "name": "success",
          "type": "bool"
        }
      ],
      "name": "BidAttempted",
      "type": "event"
    },
    {
      "anonymous": false,
      "inputs": [
        {
          "indexed": true,
          "internalType": "address",
          "name": "user",
          "type": "address"
        },
        {
          "indexed": true,
          "internalType": "address",
          "name": "contractAddress",
          "type": "address"
        },
        {
          "indexed": false,
          "internalType": "uint256",
          "name": "bidAmount",
          "type": "uint256"
        },
        {
          "indexed": false,
          "internalType": "uint256",
          "name": "minBid",
          "type": "uint256"
        },
        {
          "indexed": false,
          "internalType": "uint256",
          "name": "maxBid",
          "type": "uint256"
        },
        {
          "indexed": false,
          "internalType": "uint256",
          "name": "userBalance",
          "type": "uint256"
        },
        {
          "indexed": false,
          "internalType": "bool",
          "name": "success",
          "type": "bool"
        }
      ],
      "name": "BidDetails",
      "type": "event"
    },
    {
      "anonymous": false,
      "inputs": [
        {
          "indexed": true,
          "internalType": "address",
          "name": "user",
          "type": "address"
        },
        {
          "indexed": true,
          "internalType": "address",
          "name": "contractAddress",
          "type": "address"
        },
        {
          "indexed": false,
          "internalType": "uint256",
          "name": "bid",
          "type": "uint256"
        },
        {
          "indexed": false,
          "internalType": "string",
          "name": "reason",
          "type": "string"
        }
      ],
      "name": "BidError",
      "type": "event"
    },
    {
      "anonymous": false,
      "inputs": [
        {
          "indexed": true,
          "internalType": "address",
          "name": "user",
          "type": "address"
        },
        {
          "indexed": true,
          "internalType": "address",
          "name": "contractAddress",
          "type": "address"
        },
        {
          "indexed": false,
          "internalType": "uint256",
          "name": "bidAmount",
          "type": "uint256"
        },
        {
          "indexed": false,
          "internalType": "uint256",
          "name": "minBid",
          "type": "uint256"
        },
        {
          "indexed": false,
          "internalType": "uint256",
          "name": "maxBid",
          "type": "uint256"
        },
        {
          "indexed": false,
          "internalType": "uint256",
          "name": "userBalance",
          "type": "uint256"
        }
      ],
      "name": "BidPlaced",
      "type": "event"
    },
    {
      "anonymous": false,
      "inputs": [
        {
          "indexed": true,
          "internalType": "address",
          "name": "user",
          "type": "address"
        },
        {
          "indexed": true,
          "internalType": "address",
          "name": "contractAddress",
          "type": "address"
        },
        {
          "indexed": false,
          "internalType": "uint256",
          "name": "maxBid",
          "type": "uint256"
        }
      ],
      "name": "ContractAdded",
      "type": "event"
    },
    {
      "anonymous": false,
      "inputs": [
        {
          "indexed": true,
          "internalType": "address",
          "name": "user",
          "type": "address"
        },
        {
          "indexed": true,
          "internalType": "address",
          "name": "contractAddress",
          "type": "address"
        },
        {
          "indexed": false,
          "internalType": "string",
          "name": "operation",
          "type": "string"
        },
        {
          "indexed": false,
          "internalType": "uint256",
          "name": "timestamp",
          "type": "uint256"
        }
      ],
      "name": "ContractOperationPerformed",
      "type": "event"
    },
    {
      "anonymous": false,
      "inputs": [
        {
          "indexed": true,
          "internalType": "address",
          "name": "user",
          "type": "address"
        },
        {
          "indexed": true,
          "internalType": "address",
          "name": "contractAddress",
          "type": "address"
        }
      ],
      "name": "ContractRemoved",
      "type": "event"
    },
    {
      "anonymous": false,
      "inputs": [
        {
          "indexed": true,
          "internalType": "address",
          "name": "user",
          "type": "address"
        },
        {
          "indexed": true,
          "internalType": "address",
          "name": "contractAddress",
          "type": "address"
        },
        {
          "indexed": false,
          "internalType": "uint256",
          "name": "maxBid",
          "type": "uint256"
        }
      ],
      "name": "ContractUpdated",
      "type": "event"
    },
    {
      "anonymous": false,
      "inputs": [
        {
          "indexed": false,
          "internalType": "uint8",
          "name": "version",
          "type": "uint8"
        }
      ],
      "name": "Initialized",
      "type": "event"
    },
    {
      "anonymous": false,
      "inputs": [
        {
          "indexed": true,
          "internalType": "address",
          "name": "contractAddress",
          "type": "address"
        },
        {
          "indexed": false,
          "internalType": "uint256",
          "name": "minBid",
          "type": "uint256"
        }
      ],
      "name": "MinBidCheck",
      "type": "event"
    },
    {
      "anonymous": false,
      "inputs": [
        {
          "indexed": true,
          "internalType": "address",
          "name": "previousOwner",
          "type": "address"
        },
        {
          "indexed": true,
          "internalType": "address",
          "name": "newOwner",
          "type": "address"
        }
      ],
      "name": "OwnershipTransferred",
      "type": "event"
    },
    {
      "anonymous": false,
      "inputs": [
        {
          "indexed": true,
          "internalType": "address",
          "name": "account",
          "type": "address"
        }
      ],
      "name": "Paused",
      "type": "event"
    },
    {
      "anonymous": false,
      "inputs": [
        {
          "indexed": true,
          "internalType": "address",
          "name": "account",
          "type": "address"
        }
      ],
      "name": "Unpaused",
      "type": "event"
    },
    {
      "anonymous": false,
      "inputs": [
        {
          "indexed": true,
          "internalType": "address",
          "name": "implementation",
          "type": "address"
        }
      ],
      "name": "Upgraded",
      "type": "event"
    },
    {
      "anonymous": false,
      "inputs": [
        {
          "indexed": false,
          "internalType": "uint256",
          "name": "totalContracts",
          "type": "uint256"
        },
        {
          "indexed": false,
          "internalType": "uint256",
          "name": "successfulBids",
          "type": "uint256"
        },
        {
          "indexed": false,
          "internalType": "uint256",
          "name": "failedBids",
          "type": "uint256"
        },
        {
          "indexed": false,
          "internalType": "uint256",
          "name": "timestamp",
          "type": "uint256"
        }
      ],
      "name": "UpkeepPerformed",
      "type": "event"
    },
    {
      "anonymous": false,
      "inputs": [
        {
          "indexed": true,
          "internalType": "address",
          "name": "user",
          "type": "address"
        },
        {
          "indexed": false,
          "internalType": "string",
          "name": "operation",
          "type": "string"
        },
        {
          "indexed": false,
          "internalType": "uint256",
          "name": "amount",
          "type": "uint256"
        },
        {
          "indexed": false,
          "internalType": "uint256",
          "name": "newBalance",
          "type": "uint256"
        },
        {
          "indexed": false,
          "internalType": "uint256",
          "name": "timestamp",
          "type": "uint256"
        }
      ],
      "name": "UserBalanceOperation",
      "type": "event"
    },
    {
      "inputs": [],
      "name": "arbWasmCache",
      "outputs": [
        {
          "internalType": "contract IArbWasmCache",
          "name": "",
          "type": "address"
        }
      ],
      "stateMutability": "view",
      "type": "function"
    },
    {
      "inputs": [],
      "name": "cacheManager",
      "outputs": [
        {
          "internalType": "contract ICacheManager",
          "name": "",
          "type": "address"
        }
      ],
      "stateMutability": "view",
      "type": "function"
    },
    {
      "inputs": [
        {
          "internalType": "bytes",
          "name": "",
          "type": "bytes"
        }
      ],
      "name": "checkUpkeep",
      "outputs": [
        {
          "internalType": "bool",
          "name": "upkeepNeeded",
          "type": "bool"
        },
        {
          "internalType": "bytes",
          "name": "performData",
          "type": "bytes"
        }
      ],
      "stateMutability": "view",
      "type": "function"
    },
    {
      "inputs": [],
      "name": "emergencyWithdraw",
      "outputs": [],
      "stateMutability": "nonpayable",
      "type": "function"
    },
    {
      "inputs": [],
      "name": "fundBalance",
      "outputs": [],
      "stateMutability": "payable",
      "type": "function"
    },
    {
      "inputs": [],
      "name": "getUserAddresses",
      "outputs": [
        {
          "internalType": "address[]",
          "name": "",
          "type": "address[]"
        }
      ],
      "stateMutability": "view",
      "type": "function"
    },
    {
      "inputs": [],
      "name": "getUserBalance",
      "outputs": [
        {
          "internalType": "uint256",
          "name": "",
          "type": "uint256"
        }
      ],
      "stateMutability": "view",
      "type": "function"
    },
    {
      "inputs": [
        {
          "internalType": "address",
          "name": "_user",
          "type": "address"
        }
      ],
      "name": "getUserContracts",
      "outputs": [
        {
          "components": [
            {
              "internalType": "address",
              "name": "contractAddress",
              "type": "address"
            },
            {
              "internalType": "uint256",
              "name": "maxBid",
              "type": "uint256"
            },
            {
              "internalType": "uint256",
              "name": "lastBid",
              "type": "uint256"
            },
            {
              "internalType": "bool",
              "name": "enabled",
              "type": "bool"
            }
          ],
          "internalType": "struct ICacheManagerAutomation.ContractConfig[]",
          "name": "",
          "type": "tuple[]"
        }
      ],
      "stateMutability": "view",
      "type": "function"
    },
    {
      "inputs": [
        {
          "internalType": "address",
          "name": "_cacheManager",
          "type": "address"
        },
        {
          "internalType": "address",
          "name": "_arbWasmCache",
          "type": "address"
        }
      ],
      "name": "initialize",
      "outputs": [],
      "stateMutability": "nonpayable",
      "type": "function"
    },
    {
      "inputs": [
        {
          "internalType": "address",
          "name": "_contract",
          "type": "address"
        },
        {
          "internalType": "uint256",
          "name": "_maxBid",
          "type": "uint256"
        },
        {
          "internalType": "bool",
          "name": "_enabled",
          "type": "bool"
        }
      ],
      "name": "insertOrUpdateContract",
      "outputs": [],
      "stateMutability": "payable",
      "type": "function"
    },
    {
      "inputs": [],
      "name": "owner",
      "outputs": [
        {
          "internalType": "address",
          "name": "",
          "type": "address"
        }
      ],
      "stateMutability": "view",
      "type": "function"
    },
    {
      "inputs": [],
      "name": "pause",
      "outputs": [],
      "stateMutability": "nonpayable",
      "type": "function"
    },
    {
      "inputs": [],
      "name": "paused",
      "outputs": [
        {
          "internalType": "bool",
          "name": "",
          "type": "bool"
        }
      ],
      "stateMutability": "view",
      "type": "function"
    },
    {
      "inputs": [
        {
          "internalType": "bytes",
          "name": "performData",
          "type": "bytes"
        }
      ],
      "name": "performUpkeep",
      "outputs": [],
      "stateMutability": "nonpayable",
      "type": "function"
    },
    {
      "inputs": [
        {
          "internalType": "address",
          "name": "_contract",
          "type": "address"
        },
        {
          "internalType": "uint192",
          "name": "_bid",
          "type": "uint192"
        }
      ],
      "name": "placeBidExternal",
      "outputs": [],
      "stateMutability": "nonpayable",
      "type": "function"
    },
    {
      "inputs": [],
      "name": "proxiableUUID",
      "outputs": [
        {
          "internalType": "bytes32",
          "name": "",
          "type": "bytes32"
        }
      ],
      "stateMutability": "view",
      "type": "function"
    },
    {
      "inputs": [],
      "name": "removeAllContracts",
      "outputs": [],
      "stateMutability": "nonpayable",
      "type": "function"
    },
    {
      "inputs": [
        {
          "internalType": "address",
          "name": "_contract",
          "type": "address"
        }
      ],
      "name": "removeContract",
      "outputs": [],
      "stateMutability": "nonpayable",
      "type": "function"
    },
    {
      "inputs": [],
      "name": "renounceOwnership",
      "outputs": [],
      "stateMutability": "nonpayable",
      "type": "function"
    },
    {
      "inputs": [
        {
          "internalType": "address",
          "name": "_contract",
          "type": "address"
        },
        {
          "internalType": "bool",
          "name": "_enabled",
          "type": "bool"
        }
      ],
      "name": "setContractEnabled",
      "outputs": [],
      "stateMutability": "nonpayable",
      "type": "function"
    },
    {
      "inputs": [
        {
          "internalType": "address",
          "name": "newOwner",
          "type": "address"
        }
      ],
      "name": "transferOwnership",
      "outputs": [],
      "stateMutability": "nonpayable",
      "type": "function"
    },
    {
      "inputs": [],
      "name": "unpause",
      "outputs": [],
      "stateMutability": "nonpayable",
      "type": "function"
    },
    {
      "inputs": [
        {
          "internalType": "address",
          "name": "newImplementation",
          "type": "address"
        }
      ],
      "name": "upgradeTo",
      "outputs": [],
      "stateMutability": "nonpayable",
      "type": "function"
    },
    {
      "inputs": [
        {
          "internalType": "address",
          "name": "newImplementation",
          "type": "address"
        },
        {
          "internalType": "bytes",
          "name": "data",
          "type": "bytes"
        }
      ],
      "name": "upgradeToAndCall",
      "outputs": [],
      "stateMutability": "payable",
      "type": "function"
    },
    {
      "inputs": [
        {
          "internalType": "address",
          "name": "",
          "type": "address"
        }
      ],
      "name": "userConfig",
      "outputs": [
        {
          "internalType": "uint256",
          "name": "balance",
          "type": "uint256"
        }
      ],
      "stateMutability": "view",
      "type": "function"
    },
    {
      "inputs": [],
      "name": "withdrawBalance",
      "outputs": [],
      "stateMutability": "nonpayable",
      "type": "function"
    },
    {
      "stateMutability": "payable",
      "type": "receive"
    }
  ],
  "bytecode": "0x60a06040523060805234801561001457600080fd5b50608051612d2461004c60003960008181610663015281816106ac01528181610e9801528181610ed80152610f6b0152612d246000f3fe6080604052600436106101855760003560e01c80636e04ff0d116100d1578063a591efde1161008a578063c375c2ef11610064578063c375c2ef1461046f578063db2e21bc1461048f578063e8cc05d7146104a4578063f2fde38b146104c457600080fd5b8063a591efde14610415578063b7013dc114610437578063c2f344691461045c57600080fd5b80636e04ff0d1461035f578063715018a61461038d5780638456cb59146103a2578063887c3266146103b75780638da5cb5b146103d75780639ad02ca5146103f557600080fd5b8063485cc9551161013e57806359838a151161011857806359838a15146102b35780635c975abb146102f05780635f35b0b31461031a5780635fd8c7101461034a57600080fd5b8063485cc9551461025d5780634f1ef2861461027d57806352d1902d1461029057600080fd5b80633347f4c0146101b557806334c925f0146101ca5780633659cfe6146102005780633c067945146102205780633f4ba83a146102285780634585e33b1461023d57600080fd5b366101b05760fb5460ff16156101ae5760405163ab35696f60e01b815260040160405180910390fd5b005b600080fd5b3480156101c157600080fd5b506101ae6104e4565b3480156101d657600080fd5b506101ea6101e53660046126c3565b6105b4565b6040516101f791906126de565b60405180910390f35b34801561020c57600080fd5b506101ae61021b3660046126c3565b610659565b6101ae610741565b34801561023457600080fd5b506101ae610793565b34801561024957600080fd5b506101ae61025836600461274d565b6107d2565b34801561026957600080fd5b506101ae6102783660046127bf565b610ce7565b6101ae61028b366004612808565b610e8e565b34801561029c57600080fd5b506102a5610f5e565b6040519081526020016101f7565b3480156102bf57600080fd5b5060fb546102d89061010090046001600160a01b031681565b6040516001600160a01b0390911681526020016101f7565b3480156102fc57600080fd5b5060fb5461030a9060ff1681565b60405190151581526020016101f7565b34801561032657600080fd5b506102a56103353660046126c3565b60fd6020526000908152604090206001015481565b34801561035657600080fd5b506101ae611011565b34801561036b57600080fd5b5061037f61037a36600461274d565b61114e565b6040516101f792919061291a565b34801561039957600080fd5b506101ae611165565b3480156103ae57600080fd5b506101ae611177565b3480156103c357600080fd5b506101ae6103d236600461294a565b6111b9565b3480156103e357600080fd5b506097546001600160a01b03166102d8565b34801561040157600080fd5b506101ae61041036600461298f565b6111e7565b34801561042157600080fd5b5061042a61128f565b6040516101f791906129bb565b34801561044357600080fd5b5033600090815260fd60205260409020600101546102a5565b6101ae61046a366004612a08565b6112a8565b34801561047b57600080fd5b506101ae61048a3660046126c3565b61152f565b34801561049b57600080fd5b506101ae611717565b3480156104b057600080fd5b5060fc546102d8906001600160a01b031681565b3480156104d057600080fd5b506101ae6104df3660046126c3565b6117c6565b33600090815260fd602052604081208054909181900361051757604051633b56498960e21b815260040160405180910390fd5b60005b8181101561058b5782818154811061053457610534612a48565b600091825260208220600490910201546040516001600160a01b039091169133917f1de42a421eef953b12e8dffca9f7ba12e7962c982fc649e5e2c32ea0e7e3ca649190a38061058381612a74565b91505061051a565b5033600090815260fd602052604081206105a49161264e565b6105af60fe3361183c565b505050565b6001600160a01b038116600090815260fd60209081526040808320805482518185028101850190935280835260609492939192909184015b8282101561064e576000848152602090819020604080516080810182526004860290920180546001600160a01b03168352600180820154848601526002820154928401929092526003015460ff161515606083015290835290920191016105ec565b505050509050919050565b6001600160a01b037f00000000000000000000000000000000000000000000000000000000000000001630036106aa5760405162461bcd60e51b81526004016106a190612a8d565b60405180910390fd5b7f00000000000000000000000000000000000000000000000000000000000000006001600160a01b03166106f3600080516020612ca8833981519152546001600160a01b031690565b6001600160a01b0316146107195760405162461bcd60e51b81526004016106a190612ad9565b6107228161185a565b6040805160008082526020820190925261073e91839190611862565b50565b60fb5460ff16156107655760405163ab35696f60e01b815260040160405180910390fd5b60013410156107875760405163c6388ef760e01b815260040160405180910390fd5b61079133346119cd565b565b61079b611a51565b60fb805460ff1916905560405133907f5db9ee0a495bf2e6ff9c91a7834c1ba4fdd244a5e8aa4e537bd38aeae4b073aa90600090a2565b60006107e082840184612b25565b90506000806000806107f260fe611aab565b905060005b81518110801561080657508583105b15610c9657600082828151811061081f5761081f612a48565b6020908102919091018101516001600160a01b038116600090815260fd909252604082209092509081905b81548110801561085957508987105b15610c7f576108c782828154811061087357610873612a48565b600091825260209182902060408051608081018252600490930290910180546001600160a01b0316835260018101549383019390935260028301549082015260039091015460ff1615156060820152611abf565b15610c6d57866108d681612a74565b97505060008282815481106108ed576108ed612a48565b6000918252602082206004918202015460fb546040516332052a9b60e01b81526001600160a01b03928316938101849052929450610100900416906332052a9b90602401602060405180830381865afa15801561094e573d6000803e3d6000fd5b505050506040513d601f19601f820116820180604052508101906109729190612b3e565b6040516001600160c01b03821681529091506001600160a01b038316907ffc4d978a018634589b4e918f343acda227a293b0d80a6c0e06735eb8a96817a99060200160405180910390a260006109c9826001612b5b565b90508484815481106109dd576109dd612a48565b906000526020600020906004020160010154816001600160c01b031611158015610a145750806001600160c01b0316866001015410155b15610c5b5760fb5460405163e494015760e01b81526001600160a01b0385811660048301526101009092049091169063e4940157906001600160c01b038416906024016000604051808303818588803b158015610a7057600080fd5b505af193505050508015610a82575060015b610ae357826001600160a01b0316876001600160a01b03167f1bea1426429dd9b3da9c9ea7ba8cba69ac192c6431969d36b16f67da9dd7502283604051610ac99190612b7b565b60405180910390a38a610adb81612a74565b9b5050610c69565b806001600160c01b0316866001016000828254610b009190612bbb565b92505081905550806001600160c01b0316858581548110610b2357610b23612a48565b60009182526020909120600260049092020101558b610b4181612a74565b9c5050826001600160a01b0316876001600160a01b03167f6229ae2434a7b897b76d5946d381d85108be07ea1a46cb4380fb23f7877301d18385898981548110610b8d57610b8d612a48565b9060005260206000209060040201600101548b60010154604051610bd894939291906001600160c01b0394851681529290931660208301526040820152606081019190915260800190565b60405180910390a360fb546040516332052a9b60e01b81526001600160a01b038581166004830152610100909204909116906332052a9b90602401602060405180830381865afa158015610c30573d6000803e3d6000fd5b505050506040513d601f19601f82011682018060405250810190610c549190612b3e565b9150610c69565b8a610c6581612a74565b9b50505b5050505b80610c7781612a74565b91505061084a565b505050508080610c8e90612a74565b9150506107f7565b5060408051868152602081018690529081018490524260608201527fa280419cc0d3276d861f4d1b6207d488494ba2ff4dfab1107d04427704d57f249060800160405180910390a150505050505050565b600054610100900460ff1615808015610d075750600054600160ff909116105b80610d215750303b158015610d21575060005460ff166001145b610d845760405162461bcd60e51b815260206004820152602e60248201527f496e697469616c697a61626c653a20636f6e747261637420697320616c72656160448201526d191e481a5b9a5d1a585b1a5e995960921b60648201526084016106a1565b6000805460ff191660011790558015610da7576000805461ff0019166101001790555b6001600160a01b038316610dce5760405163e6c4247b60e01b815260040160405180910390fd5b6001600160a01b038216610df55760405163e6c4247b60e01b815260040160405180910390fd5b610dfd611bf3565b610e05611c22565b60fb8054610100600160a81b0319166101006001600160a01b03868116919091029190911790915560fc80546001600160a01b03191691841691909117905580156105af576000805461ff0019169055604051600181527f7f26b83ff96e1f2b6a682f133852f6798a09c465da95921460cefb38474024989060200160405180910390a1505050565b6001600160a01b037f0000000000000000000000000000000000000000000000000000000000000000163003610ed65760405162461bcd60e51b81526004016106a190612a8d565b7f00000000000000000000000000000000000000000000000000000000000000006001600160a01b0316610f1f600080516020612ca8833981519152546001600160a01b031690565b6001600160a01b031614610f455760405162461bcd60e51b81526004016106a190612ad9565b610f4e8261185a565b610f5a82826001611862565b5050565b6000306001600160a01b037f00000000000000000000000000000000000000000000000000000000000000001614610ffe5760405162461bcd60e51b815260206004820152603860248201527f555550535570677261646561626c653a206d757374206e6f742062652063616c60448201527f6c6564207468726f7567682064656c656761746563616c6c000000000000000060648201526084016106a1565b50600080516020612ca883398151915290565b611019611c51565b60fb5460ff161561103d5760405163ab35696f60e01b815260040160405180910390fd5b33600090815260fd60205260408120600101549081900361107157604051631e9acf1760e31b815260040160405180910390fd5b33600081815260fd60209081526040808320600101839055519182527f8ad64a0ac7700dd8425ab0499f107cb6e2cd1581d803c5b8c1c79dcb8190b1af910160405180910390a2604051600090339083908381818185875af1925050503d80600081146110fa576040519150601f19603f3d011682016040523d82523d6000602084013e6110ff565b606091505b50509050806111425760405162461bcd60e51b815260206004820152600f60248201526e151c985b9cd9995c8819985a5b1959608a1b60448201526064016106a1565b5050610791600160c955565b6000606061115a611cb1565b909590945092505050565b61116d611a51565b6107916000611e34565b61117f611a51565b60fb805460ff1916600117905560405133907f62e78cea01bee320cd4e420270b5ea74000d11b0c9f74754ebdbfc544b05a25890600090a2565b60fb5460ff16156111dd5760405163ab35696f60e01b815260040160405180910390fd5b610f5a8282611e86565b33600090815260fd60205260408120905b815481101561128957836001600160a01b031682828154811061121d5761121d612a48565b60009182526020909120600490910201546001600160a01b031603611277578282828154811061124f5761124f612a48565b60009182526020909120600490910201600301805460ff191691151591909117905550505050565b8061128181612a74565b9150506111f8565b50505050565b6060611299611a51565b6112a360fe611aab565b905090565b60fb5460ff16156112cc5760405163ab35696f60e01b815260040160405180910390fd5b6001600160a01b0383166112f35760405163e6c4247b60e01b815260040160405180910390fd5b60018210156113155760405163c6388ef760e01b815260040160405180910390fd5b33600090815260fd60205260409020805460321161134657604051632990b15f60e11b815260040160405180910390fd5b60005b815481101561144d57846001600160a01b031682828154811061136e5761136e612a48565b60009182526020909120600490910201546001600160a01b03160361143b57838282815481106113a0576113a0612a48565b906000526020600020906004020160010181905550828282815481106113c8576113c8612a48565b60009182526020909120600490910201600301805460ff19169115159190911790556113f433346119cd565b6040518481526001600160a01b0386169033907f95b3377e475434fff4b527743f79205fc694d9d2f1383dc0945f103a74eabb459060200160405180910390a35050505050565b8061144581612a74565b915050611349565b50604080516080810182526001600160a01b0386811682526020808301878152600019948401948552861515606085019081528654600180820189556000898152949094209551600490910290950180546001600160a01b03191695909416949094178355519082015591516002830155516003909101805460ff19169115159190911790556114dd33346119cd565b6114e860fe336121f9565b506040518381526001600160a01b0385169033907f059d7576e9633bca7696f2c9a469531f9ac98e62b3160b7fffcd804d18a7fc609060200160405180910390a350505050565b33600090815260fd60205260408120805490910361156057604051633b56498960e21b815260040160405180910390fd5b6000805b82548110156116fd57836001600160a01b031683828154811061158957611589612a48565b60009182526020909120600490910201546001600160a01b0316036116eb5782546001925083906115bb908490612bbb565b815481106115cb576115cb612a48565b90600052602060002090600402018382815481106115eb576115eb612a48565b60009182526020909120825460049092020180546001600160a01b0319166001600160a01b0390921691909117815560018083015490820155600280830154908201556003918201549101805460ff909216151560ff19909216919091179055825483908061165c5761165c612bce565b60008281526020812060046000199093019283020180546001600160a01b03191681556001810182905560028101829055600301805460ff191690559155835490036116af576116ad60fe3361183c565b505b6040516001600160a01b0385169033907f1de42a421eef953b12e8dffca9f7ba12e7962c982fc649e5e2c32ea0e7e3ca6490600090a350505050565b806116f581612a74565b915050611564565b50604051633b56498960e21b815260040160405180910390fd5b61171f611a51565b4760006117346097546001600160a01b031690565b6001600160a01b03168260405160006040518083038185875af1925050503d806000811461177e576040519150601f19603f3d011682016040523d82523d6000602084013e611783565b606091505b5050905080610f5a5760405162461bcd60e51b815260206004820152600f60248201526e151c985b9cd9995c8819985a5b1959608a1b60448201526064016106a1565b6117ce611a51565b6001600160a01b0381166118335760405162461bcd60e51b815260206004820152602660248201527f4f776e61626c653a206e6577206f776e657220697320746865207a65726f206160448201526564647265737360d01b60648201526084016106a1565b61073e81611e34565b6000611851836001600160a01b03841661220e565b90505b92915050565b61073e611a51565b7f4910fdfa16fed3260ed0e7147f7cc6da11a60208b5b9406d12a635614ffd91435460ff1615611895576105af83612308565b826001600160a01b03166352d1902d6040518163ffffffff1660e01b8152600401602060405180830381865afa9250505080156118ef575060408051601f3d908101601f191682019092526118ec91810190612be4565b60015b6119525760405162461bcd60e51b815260206004820152602e60248201527f45524331393637557067726164653a206e657720696d706c656d656e7461746960448201526d6f6e206973206e6f74205555505360901b60648201526084016106a1565b600080516020612ca883398151915281146119c15760405162461bcd60e51b815260206004820152602960248201527f45524331393637557067726164653a20756e737570706f727465642070726f786044820152681a58589b195555525160ba1b60648201526084016106a1565b506105af8383836123a4565b6001600160a01b038216600090815260fd6020526040812060010180548392906119f8908490612bfd565b90915550506001600160a01b038216600081815260fd60209081526040918290206001015491519182527f8ad64a0ac7700dd8425ab0499f107cb6e2cd1581d803c5b8c1c79dcb8190b1af910160405180910390a25050565b6097546001600160a01b031633146107915760405162461bcd60e51b815260206004820181905260248201527f4f776e61626c653a2063616c6c6572206973206e6f7420746865206f776e657260448201526064016106a1565b60606000611ab8836123c9565b9392505050565b60008160600151611ad257506000919050565b60fb5482516040516332052a9b60e01b81526001600160a01b0391821660048201526000926101009004909116906332052a9b90602401602060405180830381865afa158015611b26573d6000803e3d6000fd5b505050506040513d601f19601f82011682018060405250810190611b4a9190612b3e565b90508260200151816001600160c01b0316108015611bd5575060fc54835160405163a72f179b60e01b81526001600160a01b039182163f600482015291169063a72f179b90602401602060405180830381865afa158015611baf573d6000803e3d6000fd5b505050506040513d601f19601f82011682018060405250810190611bd39190612c10565b155b8015611ab857508260400151816001600160c01b0316109392505050565b600054610100900460ff16611c1a5760405162461bcd60e51b81526004016106a190612c2d565b610791612425565b600054610100900460ff16611c495760405162461bcd60e51b81526004016106a190612c2d565b610791612455565b600260c95403611ca35760405162461bcd60e51b815260206004820152601f60248201527f5265656e7472616e637947756172643a207265656e7472616e742063616c6c0060448201526064016106a1565b600260c955565b600160c955565b60006060600080611cc260fe611aab565b905060005b8151811015611e0357600060fd6000848481518110611ce857611ce8612a48565b60200260200101516001600160a01b03166001600160a01b03168152602001908152602001600020600001805480602002602001604051908101604052809291908181526020016000905b82821015611d95576000848152602090819020604080516080810182526004860290920180546001600160a01b03168352600180820154848601526002820154928401929092526003015460ff16151560608301529083529092019101611d33565b50505050905060005b8151811015611dee57611dc9828281518110611dbc57611dbc612a48565b6020026020010151611abf565b15611ddc5784611dd881612a74565b9550505b80611de681612a74565b915050611d9e565b50508080611dfb90612a74565b915050611cc7565b506000821182604051602001611e1b91815260200190565b6040516020818303038152906040529350935050509091565b609780546001600160a01b038381166001600160a01b0319831681179093556040519116919082907f8be0079c531659141344cd1fd0a4f28419497f9722a3daafe3b4186f6b6457e090600090a35050565b60fb5460ff1615611eaa5760405163ab35696f60e01b815260040160405180910390fd5b6001600160a01b038216611ed15760405163e6c4247b60e01b815260040160405180910390fd5b60fb546040516332052a9b60e01b81526001600160a01b038481166004830152600092610100900416906332052a9b90602401602060405180830381865afa158015611f21573d6000803e3d6000fd5b505050506040513d601f19601f82011682018060405250810190611f459190612b3e565b9050806001600160c01b0316826001600160c01b03161015611f7a5760405163c6388ef760e01b815260040160405180910390fd5b33600090815260fd6020526040902060018101546001600160c01b0384161115611fb757604051631e9acf1760e31b815260040160405180910390fd5b600081815b815481101561203d57866001600160a01b0316828281548110611fe157611fe1612a48565b60009182526020909120600490910201546001600160a01b03160361202b5781818154811061201257612012612a48565b906000526020600020906004020160010154925061203d565b8061203581612a74565b915050611fbc565b5060fb5460405163e494015760e01b81526001600160a01b0388811660048301526000926101009004169063e4940157906001600160c01b038916906024016000604051808303818588803b15801561209557600080fd5b505af1935050505080156120a7575060015b6120fb57866001600160a01b0316336001600160a01b03167f1bea1426429dd9b3da9c9ea7ba8cba69ac192c6431969d36b16f67da9dd75022886040516120ee9190612b7b565b60405180910390a3612185565b60019050856001600160c01b031684600101600082825461211c9190612bbb565b90915550506001840154604080516001600160c01b038981168252881660208201528082018690526060810192909252516001600160a01b0389169133917f6229ae2434a7b897b76d5946d381d85108be07ea1a46cb4380fb23f7877301d19181900360800190a35b6001840154604080516001600160c01b0389811682528816602082015280820186905260608101929092528215156080830152516001600160a01b0389169133917ffbd48d8c8e248114ceb569a27eb0e404597dc8b2be277e286d5f6b75ad668eca9181900360a00190a350505050505050565b6000611851836001600160a01b03841661247c565b600081815260018301602052604081205480156122f7576000612232600183612bbb565b855490915060009061224690600190612bbb565b90508082146122ab57600086600001828154811061226657612266612a48565b906000526020600020015490508087600001848154811061228957612289612a48565b6000918252602080832090910192909255918252600188019052604090208390555b85548690806122bc576122bc612bce565b600190038181906000526020600020016000905590558560010160008681526020019081526020016000206000905560019350505050611854565b6000915050611854565b5092915050565b6001600160a01b0381163b6123755760405162461bcd60e51b815260206004820152602d60248201527f455243313936373a206e657720696d706c656d656e746174696f6e206973206e60448201526c1bdd08184818dbdb9d1c9858dd609a1b60648201526084016106a1565b600080516020612ca883398151915280546001600160a01b0319166001600160a01b0392909216919091179055565b6123ad836124cb565b6000825111806123ba5750805b156105af57611289838361250b565b60608160000180548060200260200160405190810160405280929190818152602001828054801561241957602002820191906000526020600020905b815481526020019060010190808311612405575b50505050509050919050565b600054610100900460ff1661244c5760405162461bcd60e51b81526004016106a190612c2d565b61079133611e34565b600054610100900460ff16611caa5760405162461bcd60e51b81526004016106a190612c2d565b60008181526001830160205260408120546124c357508154600181810184556000848152602080822090930184905584548482528286019093526040902091909155611854565b506000611854565b6124d481612308565b6040516001600160a01b038216907fbc7cd75a20ee27fd9adebab32041f755214dbc6bffa90cc0225b39da2e5c2d3b90600090a250565b60606118518383604051806060016040528060278152602001612cc8602791396060600080856001600160a01b0316856040516125489190612c78565b600060405180830381855af49150503d8060008114612583576040519150601f19603f3d011682016040523d82523d6000602084013e612588565b606091505b5091509150612599868383876125a3565b9695505050505050565b6060831561261257825160000361260b576001600160a01b0385163b61260b5760405162461bcd60e51b815260206004820152601d60248201527f416464726573733a2063616c6c20746f206e6f6e2d636f6e747261637400000060448201526064016106a1565b508161261c565b61261c8383612624565b949350505050565b8151156126345781518083602001fd5b8060405162461bcd60e51b81526004016106a19190612c94565b508054600082556004029060005260206000209081019061073e91905b808211156126a35780546001600160a01b0319168155600060018201819055600282015560038101805460ff1916905560040161266b565b5090565b80356001600160a01b03811681146126be57600080fd5b919050565b6000602082840312156126d557600080fd5b611851826126a7565b602080825282518282018190526000919060409081850190868401855b8281101561274057815180516001600160a01b0316855286810151878601528581015186860152606090810151151590850152608090930192908501906001016126fb565b5091979650505050505050565b6000806020838503121561276057600080fd5b823567ffffffffffffffff8082111561277857600080fd5b818501915085601f83011261278c57600080fd5b81358181111561279b57600080fd5b8660208285010111156127ad57600080fd5b60209290920196919550909350505050565b600080604083850312156127d257600080fd5b6127db836126a7565b91506127e9602084016126a7565b90509250929050565b634e487b7160e01b600052604160045260246000fd5b6000806040838503121561281b57600080fd5b612824836126a7565b9150602083013567ffffffffffffffff8082111561284157600080fd5b818501915085601f83011261285557600080fd5b813581811115612867576128676127f2565b604051601f8201601f19908116603f0116810190838211818310171561288f5761288f6127f2565b816040528281528860208487010111156128a857600080fd5b8260208601602083013760006020848301015280955050505050509250929050565b60005b838110156128e55781810151838201526020016128cd565b50506000910152565b600081518084526129068160208601602086016128ca565b601f01601f19169290920160200192915050565b821515815260406020820152600061261c60408301846128ee565b6001600160c01b038116811461073e57600080fd5b6000806040838503121561295d57600080fd5b612966836126a7565b9150602083013561297681612935565b809150509250929050565b801515811461073e57600080fd5b600080604083850312156129a257600080fd5b6129ab836126a7565b9150602083013561297681612981565b6020808252825182820181905260009190848201906040850190845b818110156129fc5783516001600160a01b0316835292840192918401916001016129d7565b50909695505050505050565b600080600060608486031215612a1d57600080fd5b612a26846126a7565b9250602084013591506040840135612a3d81612981565b809150509250925092565b634e487b7160e01b600052603260045260246000fd5b634e487b7160e01b600052601160045260246000fd5b600060018201612a8657612a86612a5e565b5060010190565b6020808252602c908201527f46756e6374696f6e206d7573742062652063616c6c6564207468726f7567682060408201526b19195b1959d85d1958d85b1b60a21b606082015260800190565b6020808252602c908201527f46756e6374696f6e206d7573742062652063616c6c6564207468726f7567682060408201526b6163746976652070726f787960a01b606082015260800190565b600060208284031215612b3757600080fd5b5035919050565b600060208284031215612b5057600080fd5b8151611ab881612935565b6001600160c01b0381811683821601908082111561230157612301612a5e565b6001600160c01b0391909116815260406020820181905260149082015273109a59081c1b1858d95b595b9d0819985a5b195960621b606082015260800190565b8181038181111561185457611854612a5e565b634e487b7160e01b600052603160045260246000fd5b600060208284031215612bf657600080fd5b5051919050565b8082018082111561185457611854612a5e565b600060208284031215612c2257600080fd5b8151611ab881612981565b6020808252602b908201527f496e697469616c697a61626c653a20636f6e7472616374206973206e6f74206960408201526a6e697469616c697a696e6760a81b606082015260800190565b60008251612c8a8184602087016128ca565b9190910192915050565b60208152600061185160208301846128ee56fe360894a13ba1a3210667c828492db98dca3e2076cc3735a920a3ca505d382bbc416464726573733a206c6f772d6c6576656c2064656c65676174652063616c6c206661696c6564a2646970667358221220d68030b0d71b33a719d67b3e38b03c3dd37b374af42294ce6cf32bb1c870137864736f6c63430008140033",
  "linkReferences": {},
  "deployedLinkReferences": {}
}