{
  "_format": "hh-sol-artifact-1",
  "contractName": "CacheManagerAutomationV2",
  "sourceName": "src/contracts/CacheManagerAutomationV2.sol",
  "abi": [
    {
      "inputs": [],
      "name": "ContractAlreadyExists",
      "type": "error"
    },
    {
      "inputs": [],
      "name": "ContractNotFound",
      "type": "error"
    },
    {
      "inputs": [],
      "name": "ContractPaused",
      "type": "error"
    },
    {
      "inputs": [],
      "name": "ExceedsMaxUserFunds",
      "type": "error"
    },
    {
      "inputs": [],
      "name": "InsufficientBalance",
      "type": "error"
    },
    {
      "inputs": [],
      "name": "InvalidAddress",
      "type": "error"
    },
    {
      "inputs": [],
      "name": "InvalidBid",
      "type": "error"
    },
    {
      "inputs": [],
      "name": "InvalidFundAmount",
      "type": "error"
    },
    {
      "inputs": [],
      "name": "TooManyBids",
      "type": "error"
    },
    {
      "inputs": [],
      "name": "TooManyContracts",
      "type": "error"
    },
    {
      "anonymous": false,
      "inputs": [
        {
          "indexed": false,
          "internalType": "address",
          "name": "previousAdmin",
          "type": "address"
        },
        {
          "indexed": false,
          "internalType": "address",
          "name": "newAdmin",
          "type": "address"
        }
      ],
      "name": "AdminChanged",
      "type": "event"
    },
    {
      "anonymous": false,
      "inputs": [
        {
          "indexed": true,
          "internalType": "address",
          "name": "user",
          "type": "address"
        },
        {
          "indexed": false,
          "internalType": "uint256",
          "name": "newBalance",
          "type": "uint256"
        }
      ],
      "name": "BalanceUpdated",
      "type": "event"
    },
    {
      "anonymous": false,
      "inputs": [
        {
          "indexed": true,
          "internalType": "address",
          "name": "beacon",
          "type": "address"
        }
      ],
      "name": "BeaconUpgraded",
      "type": "event"
    },
    {
      "anonymous": false,
      "inputs": [
        {
          "indexed": true,
          "internalType": "address",
          "name": "user",
          "type": "address"
        },
        {
          "indexed": true,
          "internalType": "address",
          "name": "contractAddress",
          "type": "address"
        },
        {
          "indexed": false,
          "internalType": "uint256",
          "name": "bid",
          "type": "uint256"
        },
        {
          "indexed": false,
          "internalType": "bool",
          "name": "success",
          "type": "bool"
        }
      ],
      "name": "BidAttempted",
      "type": "event"
    },
    {
      "anonymous": false,
      "inputs": [
        {
          "indexed": true,
          "internalType": "address",
          "name": "user",
          "type": "address"
        },
        {
          "indexed": true,
          "internalType": "address",
          "name": "contractAddress",
          "type": "address"
        },
        {
          "indexed": false,
          "internalType": "uint256",
          "name": "bidAmount",
          "type": "uint256"
        },
        {
          "indexed": false,
          "internalType": "uint256",
          "name": "minBid",
          "type": "uint256"
        },
        {
          "indexed": false,
          "internalType": "uint256",
          "name": "maxBid",
          "type": "uint256"
        },
        {
          "indexed": false,
          "internalType": "uint256",
          "name": "userBalance",
          "type": "uint256"
        },
        {
          "indexed": false,
          "internalType": "bool",
          "name": "success",
          "type": "bool"
        }
      ],
      "name": "BidDetails",
      "type": "event"
    },
    {
      "anonymous": false,
      "inputs": [
        {
          "indexed": true,
          "internalType": "address",
          "name": "user",
          "type": "address"
        },
        {
          "indexed": true,
          "internalType": "address",
          "name": "contractAddress",
          "type": "address"
        },
        {
          "indexed": false,
          "internalType": "uint256",
          "name": "bid",
          "type": "uint256"
        },
        {
          "indexed": false,
          "internalType": "string",
          "name": "reason",
          "type": "string"
        }
      ],
      "name": "BidError",
      "type": "event"
    },
    {
      "anonymous": false,
      "inputs": [
        {
          "indexed": true,
          "internalType": "address",
          "name": "user",
          "type": "address"
        },
        {
          "indexed": true,
          "internalType": "address",
          "name": "contractAddress",
          "type": "address"
        },
        {
          "indexed": false,
          "internalType": "uint256",
          "name": "bidAmount",
          "type": "uint256"
        },
        {
          "indexed": false,
          "internalType": "uint256",
          "name": "maxBid",
          "type": "uint256"
        },
        {
          "indexed": false,
          "internalType": "uint256",
          "name": "userBalance",
          "type": "uint256"
        }
      ],
      "name": "BidPlaced",
      "type": "event"
    },
    {
      "anonymous": false,
      "inputs": [
        {
          "indexed": true,
          "internalType": "address",
          "name": "user",
          "type": "address"
        },
        {
          "indexed": true,
          "internalType": "address",
          "name": "contractAddress",
          "type": "address"
        },
        {
          "indexed": false,
          "internalType": "uint256",
          "name": "maxBid",
          "type": "uint256"
        }
      ],
      "name": "ContractAdded",
      "type": "event"
    },
    {
      "anonymous": false,
      "inputs": [
        {
          "indexed": true,
          "internalType": "address",
          "name": "user",
          "type": "address"
        },
        {
          "indexed": true,
          "internalType": "address",
          "name": "contractAddress",
          "type": "address"
        },
        {
          "indexed": false,
          "internalType": "string",
          "name": "operation",
          "type": "string"
        },
        {
          "indexed": false,
          "internalType": "uint256",
          "name": "timestamp",
          "type": "uint256"
        }
      ],
      "name": "ContractOperationPerformed",
      "type": "event"
    },
    {
      "anonymous": false,
      "inputs": [
        {
          "indexed": true,
          "internalType": "address",
          "name": "user",
          "type": "address"
        },
        {
          "indexed": true,
          "internalType": "address",
          "name": "contractAddress",
          "type": "address"
        }
      ],
      "name": "ContractRemoved",
      "type": "event"
    },
    {
      "anonymous": false,
      "inputs": [
        {
          "indexed": true,
          "internalType": "address",
          "name": "user",
          "type": "address"
        },
        {
          "indexed": true,
          "internalType": "address",
          "name": "contractAddress",
          "type": "address"
        },
        {
          "indexed": false,
          "internalType": "uint256",
          "name": "maxBid",
          "type": "uint256"
        }
      ],
      "name": "ContractUpdated",
      "type": "event"
    },
    {
      "anonymous": false,
      "inputs": [
        {
          "indexed": false,
          "internalType": "uint8",
          "name": "version",
          "type": "uint8"
        }
      ],
      "name": "Initialized",
      "type": "event"
    },
    {
      "anonymous": false,
      "inputs": [
        {
          "indexed": true,
          "internalType": "address",
          "name": "contractAddress",
          "type": "address"
        },
        {
          "indexed": false,
          "internalType": "uint256",
          "name": "minBid",
          "type": "uint256"
        }
      ],
      "name": "MinBidCheck",
      "type": "event"
    },
    {
      "anonymous": false,
      "inputs": [
        {
          "indexed": true,
          "internalType": "address",
          "name": "previousOwner",
          "type": "address"
        },
        {
          "indexed": true,
          "internalType": "address",
          "name": "newOwner",
          "type": "address"
        }
      ],
      "name": "OwnershipTransferred",
      "type": "event"
    },
    {
      "anonymous": false,
      "inputs": [
        {
          "indexed": true,
          "internalType": "address",
          "name": "account",
          "type": "address"
        }
      ],
      "name": "Paused",
      "type": "event"
    },
    {
      "anonymous": false,
      "inputs": [
        {
          "indexed": true,
          "internalType": "address",
          "name": "account",
          "type": "address"
        }
      ],
      "name": "Unpaused",
      "type": "event"
    },
    {
      "anonymous": false,
      "inputs": [
        {
          "indexed": true,
          "internalType": "address",
          "name": "implementation",
          "type": "address"
        }
      ],
      "name": "Upgraded",
      "type": "event"
    },
    {
      "anonymous": false,
      "inputs": [
        {
          "indexed": false,
          "internalType": "uint256",
          "name": "totalContracts",
          "type": "uint256"
        },
        {
          "indexed": false,
          "internalType": "uint256",
          "name": "successfulBids",
          "type": "uint256"
        },
        {
          "indexed": false,
          "internalType": "uint256",
          "name": "failedBids",
          "type": "uint256"
        },
        {
          "indexed": false,
          "internalType": "uint256",
          "name": "timestamp",
          "type": "uint256"
        }
      ],
      "name": "UpkeepPerformed",
      "type": "event"
    },
    {
      "anonymous": false,
      "inputs": [
        {
          "indexed": true,
          "internalType": "address",
          "name": "user",
          "type": "address"
        },
        {
          "indexed": false,
          "internalType": "string",
          "name": "operation",
          "type": "string"
        },
        {
          "indexed": false,
          "internalType": "uint256",
          "name": "amount",
          "type": "uint256"
        },
        {
          "indexed": false,
          "internalType": "uint256",
          "name": "newBalance",
          "type": "uint256"
        },
        {
          "indexed": false,
          "internalType": "uint256",
          "name": "timestamp",
          "type": "uint256"
        }
      ],
      "name": "UserBalanceOperation",
      "type": "event"
    },
    {
      "inputs": [],
      "name": "arbWasmCache",
      "outputs": [
        {
          "internalType": "contract IArbWasmCache",
          "name": "",
          "type": "address"
        }
      ],
      "stateMutability": "view",
      "type": "function"
    },
    {
      "inputs": [],
      "name": "cacheManager",
      "outputs": [
        {
          "internalType": "contract ICacheManager",
          "name": "",
          "type": "address"
        }
      ],
      "stateMutability": "view",
      "type": "function"
    },
    {
      "inputs": [],
      "name": "escrow",
      "outputs": [
        {
          "internalType": "contract BiddingEscrow",
          "name": "",
          "type": "address"
        }
      ],
      "stateMutability": "view",
      "type": "function"
    },
    {
      "inputs": [],
      "name": "fundBalance",
      "outputs": [],
      "stateMutability": "payable",
      "type": "function"
    },
    {
      "inputs": [],
      "name": "getUserBalance",
      "outputs": [
        {
          "internalType": "uint256",
          "name": "",
          "type": "uint256"
        }
      ],
      "stateMutability": "view",
      "type": "function"
    },
    {
      "inputs": [],
      "name": "getUserContracts",
      "outputs": [
        {
          "components": [
            {
              "internalType": "address",
              "name": "contractAddress",
              "type": "address"
            },
            {
              "internalType": "uint256",
              "name": "maxBid",
              "type": "uint256"
            },
            {
              "internalType": "bool",
              "name": "enabled",
              "type": "bool"
            }
          ],
          "internalType": "struct ICacheManagerAutomationV2.ContractConfig[]",
          "name": "",
          "type": "tuple[]"
        }
      ],
      "stateMutability": "view",
      "type": "function"
    },
    {
      "inputs": [
        {
          "internalType": "address",
          "name": "_cacheManager",
          "type": "address"
        },
        {
          "internalType": "address",
          "name": "_arbWasmCache",
          "type": "address"
        }
      ],
      "name": "initialize",
      "outputs": [],
      "stateMutability": "nonpayable",
      "type": "function"
    },
    {
      "inputs": [
        {
          "internalType": "address",
          "name": "_contract",
          "type": "address"
        },
        {
          "internalType": "uint256",
          "name": "_maxBid",
          "type": "uint256"
        },
        {
          "internalType": "bool",
          "name": "_enabled",
          "type": "bool"
        }
      ],
      "name": "insertContract",
      "outputs": [],
      "stateMutability": "payable",
      "type": "function"
    },
    {
      "inputs": [],
      "name": "owner",
      "outputs": [
        {
          "internalType": "address",
          "name": "",
          "type": "address"
        }
      ],
      "stateMutability": "view",
      "type": "function"
    },
    {
      "inputs": [
        {
          "components": [
            {
              "internalType": "address",
              "name": "user",
              "type": "address"
            },
            {
              "internalType": "address",
              "name": "contractAddress",
              "type": "address"
            }
          ],
          "internalType": "struct ICacheManagerAutomationV2.BidRequest[]",
          "name": "_bidRequests",
          "type": "tuple[]"
        }
      ],
      "name": "placeBids",
      "outputs": [],
      "stateMutability": "nonpayable",
      "type": "function"
    },
    {
      "inputs": [],
      "name": "proxiableUUID",
      "outputs": [
        {
          "internalType": "bytes32",
          "name": "",
          "type": "bytes32"
        }
      ],
      "stateMutability": "view",
      "type": "function"
    },
    {
      "inputs": [],
      "name": "removeAllContracts",
      "outputs": [],
      "stateMutability": "nonpayable",
      "type": "function"
    },
    {
      "inputs": [
        {
          "internalType": "address",
          "name": "_contract",
          "type": "address"
        }
      ],
      "name": "removeContract",
      "outputs": [],
      "stateMutability": "nonpayable",
      "type": "function"
    },
    {
      "inputs": [],
      "name": "renounceOwnership",
      "outputs": [],
      "stateMutability": "nonpayable",
      "type": "function"
    },
    {
      "inputs": [
        {
          "internalType": "address",
          "name": "newOwner",
          "type": "address"
        }
      ],
      "name": "transferOwnership",
      "outputs": [],
      "stateMutability": "nonpayable",
      "type": "function"
    },
    {
      "inputs": [
        {
          "internalType": "address",
          "name": "_contract",
          "type": "address"
        },
        {
          "internalType": "uint256",
          "name": "_maxBid",
          "type": "uint256"
        },
        {
          "internalType": "bool",
          "name": "_enabled",
          "type": "bool"
        }
      ],
      "name": "updateContract",
      "outputs": [],
      "stateMutability": "nonpayable",
      "type": "function"
    },
    {
      "inputs": [
        {
          "internalType": "address",
          "name": "newImplementation",
          "type": "address"
        }
      ],
      "name": "upgradeTo",
      "outputs": [],
      "stateMutability": "nonpayable",
      "type": "function"
    },
    {
      "inputs": [
        {
          "internalType": "address",
          "name": "newImplementation",
          "type": "address"
        },
        {
          "internalType": "bytes",
          "name": "data",
          "type": "bytes"
        }
      ],
      "name": "upgradeToAndCall",
      "outputs": [],
      "stateMutability": "payable",
      "type": "function"
    },
    {
      "inputs": [
        {
          "internalType": "address",
          "name": "",
          "type": "address"
        },
        {
          "internalType": "uint256",
          "name": "",
          "type": "uint256"
        }
      ],
      "name": "userContracts",
      "outputs": [
        {
          "internalType": "address",
          "name": "contractAddress",
          "type": "address"
        },
        {
          "internalType": "uint256",
          "name": "maxBid",
          "type": "uint256"
        },
        {
          "internalType": "bool",
          "name": "enabled",
          "type": "bool"
        }
      ],
      "stateMutability": "view",
      "type": "function"
    },
    {
      "inputs": [],
      "name": "withdrawBalance",
      "outputs": [],
      "stateMutability": "nonpayable",
      "type": "function"
    },
    {
      "stateMutability": "payable",
      "type": "receive"
    }
  ],
  "bytecode": "0x60a060405230608052348015601357600080fd5b50608051612dc161004b600039600081816105100152818161055901528181610a5201528181610a920152610b210152612dc16000f3fe6080604052600436106101235760003560e01c8063715018a6116100a0578063dfc41f4411610064578063dfc41f44146102f8578063e2fdcc171461031a578063e8cc05d71461033a578063f2fde38b1461035a578063fb5842f31461037a57600080fd5b8063715018a6146102495780638da5cb5b1461025e578063b7013dc11461027c578063b789003d14610291578063c375c2ef146102d857600080fd5b8063485cc955116100e7578063485cc955146101a15780634f1ef286146101c157806352d1902d146101d457806359838a15146101fc5780635fd8c7101461023457600080fd5b80633347f4c01461012f57806333932260146101465780633659cfe6146101665780633c06794514610186578063467ea9f41461018e57600080fd5b3661012a57005b600080fd5b34801561013b57600080fd5b5061014461039a565b005b34801561015257600080fd5b5061014461016136600461210d565b610454565b34801561017257600080fd5b506101446101813660046121a0565b610506565b6101446105ee565b61014461019c3660046121c9565b6106bb565b3480156101ad57600080fd5b506101446101bc366004612209565b610867565b6101446101cf366004612283565b610a48565b3480156101e057600080fd5b506101e9610b14565b6040519081526020015b60405180910390f35b34801561020857600080fd5b5060fc5461021c906001600160a01b031681565b6040516001600160a01b0390911681526020016101f3565b34801561024057600080fd5b50610144610bc7565b34801561025557600080fd5b50610144610cff565b34801561026a57600080fd5b506097546001600160a01b031661021c565b34801561028857600080fd5b506101e9610d11565b34801561029d57600080fd5b506102b16102ac36600461232e565b610d83565b604080516001600160a01b03909416845260208401929092521515908201526060016101f3565b3480156102e457600080fd5b506101446102f33660046121a0565b610dd2565b34801561030457600080fd5b5061030d610f83565b6040516101f39190612358565b34801561032657600080fd5b5060fb5461021c906001600160a01b031681565b34801561034657600080fd5b5060fd5461021c906001600160a01b031681565b34801561036657600080fd5b506101446103753660046121a0565b611015565b34801561038657600080fd5b506101446103953660046121c9565b61108b565b33600090815260fe60205260408120805490918190036103cd57604051633b56498960e21b815260040160405180910390fd5b60005b81811015610437578281815481106103ea576103ea6123bf565b600091825260208220600390910201546040516001600160a01b039091169133917f1de42a421eef953b12e8dffca9f7ba12e7962c982fc649e5e2c32ea0e7e3ca649190a36001016103d0565b5033600090815260fe60205260408120610450916120a9565b5050565b60328111156104765760405163f9910d2b60e01b815260040160405180910390fd5b60005b818110156105015760006104b3848484818110610498576104986123bf565b9050604002018036038101906104ae91906123d5565b6111bb565b80519091506104c257506104f9565b6104f78484848181106104d7576104d76123bf565b6104ed92602060409092020190810191506121a0565b8260200151611683565b505b600101610479565b505050565b6001600160a01b037f00000000000000000000000000000000000000000000000000000000000000001630036105575760405162461bcd60e51b815260040161054e90612432565b60405180910390fd5b7f00000000000000000000000000000000000000000000000000000000000000006001600160a01b03166105a0600080516020612d45833981519152546001600160a01b031690565b6001600160a01b0316146105c65760405162461bcd60e51b815260040161054e9061247e565b6105cf81611a14565b604080516000808252602082019092526105eb91839190611a1c565b50565b60013410156106105760405163213cf26b60e01b815260040160405180910390fd5b60fb546040516371d4ed8d60e11b81523360048201526000916001600160a01b03169063e3a9db1a90602401602060405180830381865afa158015610659573d6000803e3d6000fd5b505050506040513d601f19601f8201168201806040525081019061067d91906124ca565b9050670de0b6b3a764000061069234836124f9565b11156106b1576040516303b4225160e11b815260040160405180910390fd5b6105eb3334611b87565b6001600160a01b0383166106e25760405163e6c4247b60e01b815260040160405180910390fd5b60018210156107045760405163c6388ef760e01b815260040160405180910390fd5b33600090815260fe60205260409020805460321161073557604051632990b15f60e11b815260040160405180910390fd5b60005b815481101561079d57846001600160a01b031682828154811061075d5761075d6123bf565b60009182526020909120600390910201546001600160a01b0316036107955760405163e8dc2ba560e01b815260040160405180910390fd5b600101610738565b50604080516060810182526001600160a01b03868116825260208083018781528615159484019485528554600180820188556000888152939093209451600390910290940180546001600160a01b0319169490931693909317825591519181019190915590516002909101805460ff19169115159190911790556108213334611b87565b6040518381526001600160a01b0385169033907f059d7576e9633bca7696f2c9a469531f9ac98e62b3160b7fffcd804d18a7fc609060200160405180910390a350505050565b600054610100900460ff16158080156108875750600054600160ff909116105b806108a15750303b1580156108a1575060005460ff166001145b6109045760405162461bcd60e51b815260206004820152602e60248201527f496e697469616c697a61626c653a20636f6e747261637420697320616c72656160448201526d191e481a5b9a5d1a585b1a5e995960921b606482015260840161054e565b6000805460ff191660011790558015610927576000805461ff0019166101001790555b6001600160a01b03831661094e5760405163e6c4247b60e01b815260040160405180910390fd5b6001600160a01b0382166109755760405163e6c4247b60e01b815260040160405180910390fd5b61097d611c90565b610985611cbf565b60fc80546001600160a01b038086166001600160a01b03199283161790925560fd8054928516929091169190911790556040516109c1906120ca565b604051809103906000f0801580156109dd573d6000803e3d6000fd5b5060fb80546001600160a01b0319166001600160a01b03929092169190911790558015610501576000805461ff0019169055604051600181527f7f26b83ff96e1f2b6a682f133852f6798a09c465da95921460cefb38474024989060200160405180910390a1505050565b6001600160a01b037f0000000000000000000000000000000000000000000000000000000000000000163003610a905760405162461bcd60e51b815260040161054e90612432565b7f00000000000000000000000000000000000000000000000000000000000000006001600160a01b0316610ad9600080516020612d45833981519152546001600160a01b031690565b6001600160a01b031614610aff5760405162461bcd60e51b815260040161054e9061247e565b610b0882611a14565b61045082826001611a1c565b6000306001600160a01b037f00000000000000000000000000000000000000000000000000000000000000001614610bb45760405162461bcd60e51b815260206004820152603860248201527f555550535570677261646561626c653a206d757374206e6f742062652063616c60448201527f6c6564207468726f7567682064656c656761746563616c6c0000000000000000606482015260840161054e565b50600080516020612d4583398151915290565b610bcf611cee565b60fb546040516371d4ed8d60e11b81523360048201526000916001600160a01b03169063e3a9db1a90602401602060405180830381865afa158015610c18573d6000803e3d6000fd5b505050506040513d601f19601f82011682018060405250810190610c3c91906124ca565b905080600003610c5f57604051631e9acf1760e31b815260040160405180910390fd5b6040516000815233907f8ad64a0ac7700dd8425ab0499f107cb6e2cd1581d803c5b8c1c79dcb8190b1af9060200160405180910390a260fb546040516351cff8d960e01b81523360048201526001600160a01b03909116906351cff8d990602401600060405180830381600087803b158015610cda57600080fd5b505af1158015610cee573d6000803e3d6000fd5b5050505050610cfd600160c955565b565b610d07611d4e565b610cfd6000611da8565b60fb546040516371d4ed8d60e11b81523360048201526000916001600160a01b03169063e3a9db1a90602401602060405180830381865afa158015610d5a573d6000803e3d6000fd5b505050506040513d601f19601f82011682018060405250810190610d7e91906124ca565b905090565b60fe6020528160005260406000208181548110610d9f57600080fd5b60009182526020909120600390910201805460018201546002909201546001600160a01b03909116935090915060ff1683565b33600090815260fe602052604081208054909103610e0357604051633b56498960e21b815260040160405180910390fd5b60005b8154811015610f6957826001600160a01b0316828281548110610e2b57610e2b6123bf565b60009182526020909120600390910201546001600160a01b031603610f615781548290610e5a9060019061250c565b81548110610e6a57610e6a6123bf565b9060005260206000209060030201828281548110610e8a57610e8a6123bf565b60009182526020909120825460039092020180546001600160a01b0319166001600160a01b03909216919091178155600180830154908201556002918201549101805460ff909216151560ff199092169190911790558154829080610ef157610ef161251f565b60008281526020812060036000199093019283020180546001600160a01b031916815560018101829055600201805460ff1916905591556040516001600160a01b0385169133917f1de42a421eef953b12e8dffca9f7ba12e7962c982fc649e5e2c32ea0e7e3ca649190a3505050565b600101610e06565b50604051633b56498960e21b815260040160405180910390fd5b33600090815260fe60209081526040808320805482518185028101850190935280835260609492939192909184015b8282101561100c576000848152602090819020604080516060810182526003860290920180546001600160a01b031683526001808201548486015260029091015460ff161515918301919091529083529092019101610fb2565b50505050905090565b61101d611d4e565b6001600160a01b0381166110825760405162461bcd60e51b815260206004820152602660248201527f4f776e61626c653a206e6577206f776e657220697320746865207a65726f206160448201526564647265737360d01b606482015260840161054e565b6105eb81611da8565b6001600160a01b0383166110b25760405163e6c4247b60e01b815260040160405180910390fd5b33600090815260fe60205260408120905b81548110156111b457846001600160a01b03168282815481106110e8576110e86123bf565b60009182526020909120600390910201546001600160a01b0316036111ac578382828154811061111a5761111a6123bf565b90600052602060002090600302016001018190555082828281548110611142576111426123bf565b600091825260209182902060039190910201600201805460ff1916921515929092179091556040518581526001600160a01b0387169133917f95b3377e475434fff4b527743f79205fc694d9d2f1383dc0945f103a74eabb45910160405180910390a35050505050565b6001016110c3565b5050505050565b6111ee60408051808201825260008082528251606081018452818152602081810183905293810191909152909182015290565b815160208301516001600160a01b038216158061121257506001600160a01b038116155b1561124e575050604080518082018252600080825282516060810184528181526020818101839052938101919091529181019190915292915050565b60fd5460405163a72f179b60e01b81526001600160a01b038381163f60048301529091169063a72f179b90602401602060405180830381865afa158015611299573d6000803e3d6000fd5b505050506040513d601f19601f820116820180604052508101906112bd9190612535565b156112f9575050604080518082018252600080825282516060810184528181526020818101839052938101919091529181019190915292915050565b6001600160a01b038216600090815260fe60205260408120905b815481101561164a57826001600160a01b0316828281548110611338576113386123bf565b60009182526020909120600390910201546001600160a01b03160361164257818181548110611369576113696123bf565b600091825260209091206002600390920201015460ff166113fe5760405180604001604052806000151581526020018383815481106113aa576113aa6123bf565b600091825260209182902060408051606081018252600390930290910180546001600160a01b0316835260018101549383019390935260029092015460ff1615159181019190915290529695505050505050565b60fc546040516332052a9b60e01b81526001600160a01b03858116600483015260009216906332052a9b90602401602060405180830381865afa158015611449573d6000803e3d6000fd5b505050506040513d601f19601f8201168201806040525081019061146d9190612559565b9050828281548110611481576114816123bf565b906000526020600020906003020160010154816001600160c01b0316111561151e5760405180604001604052806000151581526020018484815481106114c9576114c96123bf565b600091825260209182902060408051606081018252600390930290910180546001600160a01b0316835260018101549383019390935260029092015460ff161515918101919091529052979650505050505050565b60fb546040516371d4ed8d60e11b81526001600160a01b038781166004830152600092169063e3a9db1a90602401602060405180830381865afa158015611569573d6000803e3d6000fd5b505050506040513d601f19601f8201168201806040525081019061158d91906124ca565b905080826001600160c01b0316111561161c5760405180604001604052806000151581526020018585815481106115c6576115c66123bf565b600091825260209182902060408051606081018252600390930290910180546001600160a01b0316835260018101549383019390935260029092015460ff16151591810191909152905298975050505050505050565b60405180604001604052806001151581526020018585815481106115c6576115c66123bf565b600101611313565b50506040805180820182526000808252825160608101845281815260208181018390529381019190915291810191909152949350505050565b8051602082015160fc546040516332052a9b60e01b81526001600160a01b03808516600483015260009216906332052a9b90602401602060405180830381865afa1580156116d5573d6000803e3d6000fd5b505050506040513d601f19601f820116820180604052508101906116f99190612559565b60fb5460405163f98b209360e01b81526001600160a01b0388811660048301526001600160c01b038416602483015292935091169063f98b209390604401600060405180830381600087803b15801561175157600080fd5b505af1925050508015611762575060015b6117f157826001600160a01b0316856001600160a01b03167f1bea1426429dd9b3da9c9ea7ba8cba69ac192c6431969d36b16f67da9dd75022836040516117e491906001600160c01b0391909116815260406020820181905260149082015273496e73756666696369656e742062616c616e636560601b606082015260800190565b60405180910390a36111b4565b60fc5460405163e494015760e01b81526001600160a01b0385811660048301529091169063e4940157906001600160c01b038416906024016000604051808303818588803b15801561184257600080fd5b505af193505050508015611854575060015b6119405760fb5460405163f340fa0160e01b81526001600160a01b0387811660048301529091169063f340fa01906001600160c01b038416906024016000604051808303818588803b1580156118a957600080fd5b505af11580156118bd573d6000803e3d6000fd5b5050505050826001600160a01b0316856001600160a01b03167f1bea1426429dd9b3da9c9ea7ba8cba69ac192c6431969d36b16f67da9dd75022836040516117e491906001600160c01b0391909116815260406020820181905260149082015273109a59081c1b1858d95b595b9d0819985a5b195960621b606082015260800190565b60fb546040516371d4ed8d60e11b81526001600160a01b038781166004830152600092169063e3a9db1a90602401602060405180830381865afa15801561198b573d6000803e3d6000fd5b505050506040513d601f19601f820116820180604052508101906119af91906124ca565b604080516001600160c01b0385168152602081018690529081018290529091506001600160a01b0380861691908816907fd8c744a00b9e0131cbbabb5774cdf1db85f1ee81c1aada72b5c667b6168da7b89060600160405180910390a3505050505050565b6105eb611d4e565b7f4910fdfa16fed3260ed0e7147f7cc6da11a60208b5b9406d12a635614ffd91435460ff1615611a4f5761050183611dfa565b826001600160a01b03166352d1902d6040518163ffffffff1660e01b8152600401602060405180830381865afa925050508015611aa9575060408051601f3d908101601f19168201909252611aa6918101906124ca565b60015b611b0c5760405162461bcd60e51b815260206004820152602e60248201527f45524331393637557067726164653a206e657720696d706c656d656e7461746960448201526d6f6e206973206e6f74205555505360901b606482015260840161054e565b600080516020612d458339815191528114611b7b5760405162461bcd60e51b815260206004820152602960248201527f45524331393637557067726164653a20756e737570706f727465642070726f786044820152681a58589b195555525160ba1b606482015260840161054e565b50610501838383611e96565b60fb5460405163f340fa0160e01b81526001600160a01b0384811660048301529091169063f340fa019083906024016000604051808303818588803b158015611bcf57600080fd5b505af1158015611be3573d6000803e3d6000fd5b505060fb546040516371d4ed8d60e11b81526001600160a01b038781166004830181905295507f8ad64a0ac7700dd8425ab0499f107cb6e2cd1581d803c5b8c1c79dcb8190b1af9450909116915063e3a9db1a90602401602060405180830381865afa158015611c57573d6000803e3d6000fd5b505050506040513d601f19601f82011682018060405250810190611c7b91906124ca565b60405190815260200160405180910390a25050565b600054610100900460ff16611cb75760405162461bcd60e51b815260040161054e90612582565b610cfd611ec1565b600054610100900460ff16611ce65760405162461bcd60e51b815260040161054e90612582565b610cfd611ef1565b600260c95403611d405760405162461bcd60e51b815260206004820152601f60248201527f5265656e7472616e637947756172643a207265656e7472616e742063616c6c00604482015260640161054e565b600260c955565b600160c955565b6097546001600160a01b03163314610cfd5760405162461bcd60e51b815260206004820181905260248201527f4f776e61626c653a2063616c6c6572206973206e6f7420746865206f776e6572604482015260640161054e565b609780546001600160a01b038381166001600160a01b0319831681179093556040519116919082907f8be0079c531659141344cd1fd0a4f28419497f9722a3daafe3b4186f6b6457e090600090a35050565b6001600160a01b0381163b611e675760405162461bcd60e51b815260206004820152602d60248201527f455243313936373a206e657720696d706c656d656e746174696f6e206973206e60448201526c1bdd08184818dbdb9d1c9858dd609a1b606482015260840161054e565b600080516020612d4583398151915280546001600160a01b0319166001600160a01b0392909216919091179055565b611e9f83611f18565b600082511180611eac5750805b1561050157611ebb8383611f58565b50505050565b600054610100900460ff16611ee85760405162461bcd60e51b815260040161054e90612582565b610cfd33611da8565b600054610100900460ff16611d475760405162461bcd60e51b815260040161054e90612582565b611f2181611dfa565b6040516001600160a01b038216907fbc7cd75a20ee27fd9adebab32041f755214dbc6bffa90cc0225b39da2e5c2d3b90600090a250565b6060611f7d8383604051806060016040528060278152602001612d6560279139611f86565b90505b92915050565b6060600080856001600160a01b031685604051611fa391906125f1565b600060405180830381855af49150503d8060008114611fde576040519150601f19603f3d011682016040523d82523d6000602084013e611fe3565b606091505b5091509150611ff486838387611ffe565b9695505050505050565b6060831561206d578251600003612066576001600160a01b0385163b6120665760405162461bcd60e51b815260206004820152601d60248201527f416464726573733a2063616c6c20746f206e6f6e2d636f6e7472616374000000604482015260640161054e565b5081612077565b612077838361207f565b949350505050565b81511561208f5781518083602001fd5b8060405162461bcd60e51b815260040161054e919061260d565b50805460008255600302906000526020600020908101906105eb91906120d7565b6107048061264183390190565b5b808211156121095780546001600160a01b03191681556000600182015560028101805460ff191690556003016120d8565b5090565b6000806020838503121561212057600080fd5b823567ffffffffffffffff81111561213757600080fd5b8301601f8101851361214857600080fd5b803567ffffffffffffffff81111561215f57600080fd5b8560208260061b840101111561217457600080fd5b6020919091019590945092505050565b80356001600160a01b038116811461219b57600080fd5b919050565b6000602082840312156121b257600080fd5b611f7d82612184565b80151581146105eb57600080fd5b6000806000606084860312156121de57600080fd5b6121e784612184565b92506020840135915060408401356121fe816121bb565b809150509250925092565b6000806040838503121561221c57600080fd5b61222583612184565b915061223360208401612184565b90509250929050565b634e487b7160e01b600052604160045260246000fd5b604051601f8201601f1916810167ffffffffffffffff8111828210171561227b5761227b61223c565b604052919050565b6000806040838503121561229657600080fd5b61229f83612184565b9150602083013567ffffffffffffffff8111156122bb57600080fd5b8301601f810185136122cc57600080fd5b803567ffffffffffffffff8111156122e6576122e661223c565b6122f9601f8201601f1916602001612252565b81815286602083850101111561230e57600080fd5b816020840160208301376000602083830101528093505050509250929050565b6000806040838503121561234157600080fd5b61234a83612184565b946020939093013593505050565b602080825282518282018190526000918401906040840190835b818110156123b457835180516001600160a01b031684526020808201518186015260409182015115159185019190915290930192606090920191600101612372565b509095945050505050565b634e487b7160e01b600052603260045260246000fd5b600060408284031280156123e857600080fd5b506040805190810167ffffffffffffffff8111828210171561240c5761240c61223c565b60405261241883612184565b815261242660208401612184565b60208201529392505050565b6020808252602c908201527f46756e6374696f6e206d7573742062652063616c6c6564207468726f7567682060408201526b19195b1959d85d1958d85b1b60a21b606082015260800190565b6020808252602c908201527f46756e6374696f6e206d7573742062652063616c6c6564207468726f7567682060408201526b6163746976652070726f787960a01b606082015260800190565b6000602082840312156124dc57600080fd5b5051919050565b634e487b7160e01b600052601160045260246000fd5b80820180821115611f8057611f806124e3565b81810381811115611f8057611f806124e3565b634e487b7160e01b600052603160045260246000fd5b60006020828403121561254757600080fd5b8151612552816121bb565b9392505050565b60006020828403121561256b57600080fd5b81516001600160c01b038116811461255257600080fd5b6020808252602b908201527f496e697469616c697a61626c653a20636f6e7472616374206973206e6f74206960408201526a6e697469616c697a696e6760a81b606082015260800190565b60005b838110156125e85781810151838201526020016125d0565b50506000910152565b600082516126038184602087016125cd565b9190910192915050565b602081526000825180602084015261262c8160408501602087016125cd565b601f01601f1916919091016040019291505056fe6080604052348015600f57600080fd5b50601733601b565b606b565b600080546001600160a01b038381166001600160a01b0319831681178455604051919092169283917f8be0079c531659141344cd1fd0a4f28419497f9722a3daafe3b4186f6b6457e09190a35050565b61068a8061007a6000396000f3fe6080604052600436106100705760003560e01c8063e3a9db1a1161004e578063e3a9db1a146100d9578063f2fde38b1461011d578063f340fa011461013d578063f98b20931461015057600080fd5b806351cff8d914610075578063715018a6146100975780638da5cb5b146100ac575b600080fd5b34801561008157600080fd5b506100956100903660046105c2565b610170565b005b3480156100a357600080fd5b506100956101e7565b3480156100b857600080fd5b506000546040516001600160a01b0390911681526020015b60405180910390f35b3480156100e557600080fd5b5061010f6100f43660046105c2565b6001600160a01b031660009081526001602052604090205490565b6040519081526020016100d0565b34801561012957600080fd5b506100956101383660046105c2565b6101fb565b61009561014b3660046105c2565b610279565b34801561015c57600080fd5b5061009561016b3660046105e6565b6102eb565b6101786103e5565b6001600160a01b03811660008181526001602052604081208054919055906101a0908261043f565b816001600160a01b03167f7084f5476618d8e60b11ef0d7d3f06914655adb8793e28ff7f018d4c76d505d5826040516101db91815260200190565b60405180910390a25050565b6101ef6103e5565b6101f9600061055d565b565b6102036103e5565b6001600160a01b03811661026d5760405162461bcd60e51b815260206004820152602660248201527f4f776e61626c653a206e6577206f776e657220697320746865207a65726f206160448201526564647265737360d01b60648201526084015b60405180910390fd5b6102768161055d565b50565b6102816103e5565b6001600160a01b0381166000908152600160205260408120805434928392916102ab908490610628565b90915550506040518181526001600160a01b038316907f2da466a7b24304f47e87fa2e1e5a81b9831ce54fec19055ce277ca2f39ba42c4906020016101db565b6102f36103e5565b6001600160a01b038216600090815260016020526040902054808211156103555760405162461bcd60e51b8152602060048201526016602482015275416d6f756e7420657863656564732062616c616e636560501b6044820152606401610264565b61035f8282610641565b6001600160a01b03841660009081526001602052604090205561039d8261038e6000546001600160a01b031690565b6001600160a01b03169061043f565b826001600160a01b03167f7084f5476618d8e60b11ef0d7d3f06914655adb8793e28ff7f018d4c76d505d5836040516103d891815260200190565b60405180910390a2505050565b6000546001600160a01b031633146101f95760405162461bcd60e51b815260206004820181905260248201527f4f776e61626c653a2063616c6c6572206973206e6f7420746865206f776e65726044820152606401610264565b8047101561048f5760405162461bcd60e51b815260206004820152601d60248201527f416464726573733a20696e73756666696369656e742062616c616e63650000006044820152606401610264565b6000826001600160a01b03168260405160006040518083038185875af1925050503d80600081146104dc576040519150601f19603f3d011682016040523d82523d6000602084013e6104e1565b606091505b50509050806105585760405162461bcd60e51b815260206004820152603a60248201527f416464726573733a20756e61626c6520746f2073656e642076616c75652c207260448201527f6563697069656e74206d617920686176652072657665727465640000000000006064820152608401610264565b505050565b600080546001600160a01b038381166001600160a01b0319831681178455604051919092169283917f8be0079c531659141344cd1fd0a4f28419497f9722a3daafe3b4186f6b6457e09190a35050565b6001600160a01b038116811461027657600080fd5b6000602082840312156105d457600080fd5b81356105df816105ad565b9392505050565b600080604083850312156105f957600080fd5b8235610604816105ad565b946020939093013593505050565b634e487b7160e01b600052601160045260246000fd5b8082018082111561063b5761063b610612565b92915050565b8181038181111561063b5761063b61061256fea26469706673582212200715fe56678fec15dbf75729b10287919d6637b5ecb0829024d62e0e631e944564736f6c634300081e0033360894a13ba1a3210667c828492db98dca3e2076cc3735a920a3ca505d382bbc416464726573733a206c6f772d6c6576656c2064656c65676174652063616c6c206661696c6564a26469706673582212208de7bbc597c3f1626dde4871d24ad734a54fb05f42a725f5ea267553ea5fda9364736f6c634300081e0033",
  "linkReferences": {},
  "deployedLinkReferences": {}
}